{
  "transactions": [
    {
      "hash": "0x5620bff8568b75c27114227510f34cec66a85b9dc78e0c1dfea34d6b381918cc",
      "transactionType": "CALL",
      "contractName": null,
      "contractAddress": "0x665566b12f2e9e93d55f0f2ffdeae46553bd037d",
      "function": "simulateYieldGeneration(uint256)",
      "arguments": [
        "500000000000"
      ],
      "transaction": {
        "from": "0x38c35a030ac45a511a7930dffd93fcdc2f67b6a8",
        "to": "0x665566b12f2e9e93d55f0f2ffdeae46553bd037d",
        "gas": "0xa96d2d0",
        "value": "0x0",
        "input": "0x4d8be820000000000000000000000000000000000000000000000000000000746a528800",
        "nonce": "0x67",
        "chainId": "0x138b"
      },
      "additionalContracts": [],
      "isFixedGasLimit": false
    },
    {
      "hash": "0x3e4fbcfd20b1ae835f2759a53c1d9f34b7c9f046028933a6df807e8c735d84b6",
      "transactionType": "CALL",
      "contractName": null,
      "contractAddress": "0x665566b12f2e9e93d55f0f2ffdeae46553bd037d",
      "function": "addDemoVolume(uint256)",
      "arguments": [
        "80000000000"
      ],
      "transaction": {
        "from": "0x38c35a030ac45a511a7930dffd93fcdc2f67b6a8",
        "to": "0x665566b12f2e9e93d55f0f2ffdeae46553bd037d",
        "gas": "0x8f60e9e",
        "value": "0x0",
        "input": "0xb4bd690500000000000000000000000000000000000000000000000000000012a05f2000",
        "nonce": "0x68",
        "chainId": "0x138b"
      },
      "additionalContracts": [],
      "isFixedGasLimit": false
    },
    {
      "hash": "0x91e61d301e92f4e2efecaeaaf98caaa8da230aec153003cfc662d200b5b034ee",
      "transactionType": "CALL",
      "contractName": null,
      "contractAddress": "0x665566b12f2e9e93d55f0f2ffdeae46553bd037d",
      "function": "recordDailySnapshot()",
      "arguments": [],
      "transaction": {
        "from": "0x38c35a030ac45a511a7930dffd93fcdc2f67b6a8",
        "to": "0x665566b12f2e9e93d55f0f2ffdeae46553bd037d",
        "gas": "0x2b755341",
        "value": "0x0",
        "input": "0xb0743d0a",
        "nonce": "0x69",
        "chainId": "0x138b"
      },
      "additionalContracts": [],
      "isFixedGasLimit": false
    },
    {
      "hash": "0x070aefbe4fdd25e922f371081092ed889b751ed39bcdd74fef337baf8b8d27be",
      "transactionType": "CALL",
      "contractName": null,
      "contractAddress": "0x665566b12f2e9e93d55f0f2ffdeae46553bd037d",
      "function": "addDemoVolume(uint256)",
      "arguments": [
        "80000000000"
      ],
      "transaction": {
        "from": "0x38c35a030ac45a511a7930dffd93fcdc2f67b6a8",
        "to": "0x665566b12f2e9e93d55f0f2ffdeae46553bd037d",
        "gas": "0x8f60e9e",
        "value": "0x0",
        "input": "0xb4bd690500000000000000000000000000000000000000000000000000000012a05f2000",
        "nonce": "0x6a",
        "chainId": "0x138b"
      },
      "additionalContracts": [],
      "isFixedGasLimit": false
    },
    {
      "hash": "0x2cc69b62e2c67f69af51d9c9dc5aff4cfd7b4e078b5430c29801689b1a257a47",
      "transactionType": "CALL",
      "contractName": null,
      "contractAddress": "0x665566b12f2e9e93d55f0f2ffdeae46553bd037d",
      "function": "recordDailySnapshot()",
      "arguments": [],
      "transaction": {
        "from": "0x38c35a030ac45a511a7930dffd93fcdc2f67b6a8",
        "to": "0x665566b12f2e9e93d55f0f2ffdeae46553bd037d",
        "gas": "0x2b755341",
        "value": "0x0",
        "input": "0xb0743d0a",
        "nonce": "0x6b",
        "chainId": "0x138b"
      },
      "additionalContracts": [],
      "isFixedGasLimit": false
    },
    {
      "hash": "0x29c88c78b08852d0462a9d6a7cc972e8fb6071358cc71e0c17ded2bd6a9ec612",
      "transactionType": "CALL",
      "contractName": null,
      "contractAddress": "0x665566b12f2e9e93d55f0f2ffdeae46553bd037d",
      "function": "addDemoVolume(uint256)",
      "arguments": [
        "80000000000"
      ],
      "transaction": {
        "from": "0x38c35a030ac45a511a7930dffd93fcdc2f67b6a8",
        "to": "0x665566b12f2e9e93d55f0f2ffdeae46553bd037d",
        "gas": "0x8f60e9e",
        "value": "0x0",
        "input": "0xb4bd690500000000000000000000000000000000000000000000000000000012a05f2000",
        "nonce": "0x6c",
        "chainId": "0x138b"
      },
      "additionalContracts": [],
      "isFixedGasLimit": false
    },
    {
      "hash": "0x7c46d6efe143526fd7c482435cf9f8f8f74dbbad2f54dba2cab8f7565d41a900",
      "transactionType": "CALL",
      "contractName": null,
      "contractAddress": "0x665566b12f2e9e93d55f0f2ffdeae46553bd037d",
      "function": "recordDailySnapshot()",
      "arguments": [],
      "transaction": {
        "from": "0x38c35a030ac45a511a7930dffd93fcdc2f67b6a8",
        "to": "0x665566b12f2e9e93d55f0f2ffdeae46553bd037d",
        "gas": "0x2b755341",
        "value": "0x0",
        "input": "0xb0743d0a",
        "nonce": "0x6d",
        "chainId": "0x138b"
      },
      "additionalContracts": [],
      "isFixedGasLimit": false
    },
    {
      "hash": "0x66517cb1d0ed2fd9a81dba7784a645eb0e64ad88a2832f3811db8c1c39e7742d",
      "transactionType": "CALL",
      "contractName": null,
      "contractAddress": "0x665566b12f2e9e93d55f0f2ffdeae46553bd037d",
      "function": "addDemoVolume(uint256)",
      "arguments": [
        "80000000000"
      ],
      "transaction": {
        "from": "0x38c35a030ac45a511a7930dffd93fcdc2f67b6a8",
        "to": "0x665566b12f2e9e93d55f0f2ffdeae46553bd037d",
        "gas": "0x8f60e9e",
        "value": "0x0",
        "input": "0xb4bd690500000000000000000000000000000000000000000000000000000012a05f2000",
        "nonce": "0x6e",
        "chainId": "0x138b"
      },
      "additionalContracts": [],
      "isFixedGasLimit": false
    },
    {
      "hash": "0x1f01e2bf69149c718a85de8d1308e4811073d1e52cf92b55851fcbb8827e5b82",
      "transactionType": "CALL",
      "contractName": null,
      "contractAddress": "0x665566b12f2e9e93d55f0f2ffdeae46553bd037d",
      "function": "recordDailySnapshot()",
      "arguments": [],
      "transaction": {
        "from": "0x38c35a030ac45a511a7930dffd93fcdc2f67b6a8",
        "to": "0x665566b12f2e9e93d55f0f2ffdeae46553bd037d",
        "gas": "0x2b755341",
        "value": "0x0",
        "input": "0xb0743d0a",
        "nonce": "0x6f",
        "chainId": "0x138b"
      },
      "additionalContracts": [],
      "isFixedGasLimit": false
    },
    {
      "hash": "0xc21e4d9f24d2cbfbb2c43963a8b20f7a2299929523161da895b3c2b3c042299e",
      "transactionType": "CALL",
      "contractName": null,
      "contractAddress": "0x665566b12f2e9e93d55f0f2ffdeae46553bd037d",
      "function": "addDemoVolume(uint256)",
      "arguments": [
        "80000000000"
      ],
      "transaction": {
        "from": "0x38c35a030ac45a511a7930dffd93fcdc2f67b6a8",
        "to": "0x665566b12f2e9e93d55f0f2ffdeae46553bd037d",
        "gas": "0x8f60e9e",
        "value": "0x0",
        "input": "0xb4bd690500000000000000000000000000000000000000000000000000000012a05f2000",
        "nonce": "0x70",
        "chainId": "0x138b"
      },
      "additionalContracts": [],
      "isFixedGasLimit": false
    },
    {
      "hash": "0x9c2b1118269f8a260db46264c86005ea1e2791ce77a93bd6d20a3ef7aec92820",
      "transactionType": "CALL",
      "contractName": null,
      "contractAddress": "0x665566b12f2e9e93d55f0f2ffdeae46553bd037d",
      "function": "recordDailySnapshot()",
      "arguments": [],
      "transaction": {
        "from": "0x38c35a030ac45a511a7930dffd93fcdc2f67b6a8",
        "to": "0x665566b12f2e9e93d55f0f2ffdeae46553bd037d",
        "gas": "0x2b755341",
        "value": "0x0",
        "input": "0xb0743d0a",
        "nonce": "0x71",
        "chainId": "0x138b"
      },
      "additionalContracts": [],
      "isFixedGasLimit": false
    },
    {
      "hash": "0xdaec7d002c4f0b1340604d9ce5fabfb51830554557bd530117539ca2140abfd7",
      "transactionType": "CALL",
      "contractName": null,
      "contractAddress": "0x665566b12f2e9e93d55f0f2ffdeae46553bd037d",
      "function": "addDemoVolume(uint256)",
      "arguments": [
        "80000000000"
      ],
      "transaction": {
        "from": "0x38c35a030ac45a511a7930dffd93fcdc2f67b6a8",
        "to": "0x665566b12f2e9e93d55f0f2ffdeae46553bd037d",
        "gas": "0x8f60e9e",
        "value": "0x0",
        "input": "0xb4bd690500000000000000000000000000000000000000000000000000000012a05f2000",
        "nonce": "0x72",
        "chainId": "0x138b"
      },
      "additionalContracts": [],
      "isFixedGasLimit": false
    },
    {
      "hash": "0x1d67a0d6582d55fe754b40d1fa310bfa2cd966fe31b70b4432add973753b39b4",
      "transactionType": "CALL",
      "contractName": null,
      "contractAddress": "0x665566b12f2e9e93d55f0f2ffdeae46553bd037d",
      "function": "recordDailySnapshot()",
      "arguments": [],
      "transaction": {
        "from": "0x38c35a030ac45a511a7930dffd93fcdc2f67b6a8",
        "to": "0x665566b12f2e9e93d55f0f2ffdeae46553bd037d",
        "gas": "0x2b755341",
        "value": "0x0",
        "input": "0xb0743d0a",
        "nonce": "0x73",
        "chainId": "0x138b"
      },
      "additionalContracts": [],
      "isFixedGasLimit": false
    },
    {
      "hash": "0x7e6d88354321ed75601d6cfec3d0f27de56fcbed36a2ad633e0ac0411435cef7",
      "transactionType": "CALL",
      "contractName": null,
      "contractAddress": "0x665566b12f2e9e93d55f0f2ffdeae46553bd037d",
      "function": "addDemoVolume(uint256)",
      "arguments": [
        "80000000000"
      ],
      "transaction": {
        "from": "0x38c35a030ac45a511a7930dffd93fcdc2f67b6a8",
        "to": "0x665566b12f2e9e93d55f0f2ffdeae46553bd037d",
        "gas": "0x8f60e9e",
        "value": "0x0",
        "input": "0xb4bd690500000000000000000000000000000000000000000000000000000012a05f2000",
        "nonce": "0x74",
        "chainId": "0x138b"
      },
      "additionalContracts": [],
      "isFixedGasLimit": false
    },
    {
      "hash": "0x34d542d5b894ba18af47e94c10e6213fd0604127c4348148443b1a8d789b5edc",
      "transactionType": "CALL",
      "contractName": null,
      "contractAddress": "0x665566b12f2e9e93d55f0f2ffdeae46553bd037d",
      "function": "recordDailySnapshot()",
      "arguments": [],
      "transaction": {
        "from": "0x38c35a030ac45a511a7930dffd93fcdc2f67b6a8",
        "to": "0x665566b12f2e9e93d55f0f2ffdeae46553bd037d",
        "gas": "0x2b755341",
        "value": "0x0",
        "input": "0xb0743d0a",
        "nonce": "0x75",
        "chainId": "0x138b"
      },
      "additionalContracts": [],
      "isFixedGasLimit": false
    },
    {
      "hash": "0x2638c1bdd278de90675e75f23f86f872466f2b2a1ca47c4e24921e9b083723f3",
      "transactionType": "CALL",
      "contractName": "MockUSDC",
      "contractAddress": "0xcb456899a90bc65ba19b899316623c481e3ebdcb",
      "function": "mintAdmin(address,uint256)",
      "arguments": [
        "0x1111111111111111111111111111111111111111",
        "50000000000"
      ],
      "transaction": {
        "from": "0x38c35a030ac45a511a7930dffd93fcdc2f67b6a8",
        "to": "0xcb456899a90bc65ba19b899316623c481e3ebdcb",
        "gas": "0xae762c0",
        "value": "0x0",
        "input": "0xc3a7199900000000000000000000000011111111111111111111111111111111111111110000000000000000000000000000000000000000000000000000000ba43b7400",
        "nonce": "0x76",
        "chainId": "0x138b"
      },
      "additionalContracts": [],
      "isFixedGasLimit": false
    },
    {
      "hash": "0xed037ac1b6427f7608a6e19988472a4a8c3ca60f0e7db7d462caa42c6ceccf7e",
      "transactionType": "CALL",
      "contractName": "MockUSDC",
      "contractAddress": "0xcb456899a90bc65ba19b899316623c481e3ebdcb",
      "function": "approve(address,uint256)",
      "arguments": [
        "0xF5DC8dE141b22D054621C9C413A40b95AC0d226f",
        "20000000000"
      ],
      "transaction": {
        "from": "0x38c35a030ac45a511a7930dffd93fcdc2f67b6a8",
        "to": "0xcb456899a90bc65ba19b899316623c481e3ebdcb",
        "gas": "0xdd3e7da",
        "value": "0x0",
        "input": "0x095ea7b3000000000000000000000000f5dc8de141b22d054621c9c413a40b95ac0d226f00000000000000000000000000000000000000000000000000000004a817c800",
        "nonce": "0x77",
        "chainId": "0x138b"
      },
      "additionalContracts": [],
      "isFixedGasLimit": false
    },
    {
      "hash": "0x4bab756b2ce7bc1204ba02213a906df556996bb56404c9045a2bc63e2f4ed74a",
      "transactionType": "CALL",
      "contractName": null,
      "contractAddress": "0xf5dc8de141b22d054621c9c413a40b95ac0d226f",
      "function": "deposit(uint256)",
      "arguments": [
        "20000000000"
      ],
      "transaction": {
        "from": "0x38c35a030ac45a511a7930dffd93fcdc2f67b6a8",
        "to": "0xf5dc8de141b22d054621c9c413a40b95ac0d226f",
        "gas": "0x953ec",
        "value": "0x0",
        "input": "0xb6b55f2500000000000000000000000000000000000000000000000000000004a817c800",
        "nonce": "0x78",
        "chainId": "0x138b"
      },
      "additionalContracts": [],
      "isFixedGasLimit": false
    },
    {
      "hash": "0x5e0ded29fd5be2ca1b8f1cc01c302191a4a0d0b5647c838f66ef9f0abc4d75f0",
      "transactionType": "CALL",
      "contractName": null,
      "contractAddress": "0x665566b12f2e9e93d55f0f2ffdeae46553bd037d",
      "function": "simulateYieldGeneration(uint256)",
      "arguments": [
        "200000000000"
      ],
      "transaction": {
        "from": "0x38c35a030ac45a511a7930dffd93fcdc2f67b6a8",
        "to": "0x665566b12f2e9e93d55f0f2ffdeae46553bd037d",
        "gas": "0xa96d2d0",
        "value": "0x0",
        "input": "0x4d8be8200000000000000000000000000000000000000000000000000000002e90edd000",
        "nonce": "0x79",
        "chainId": "0x138b"
      },
      "additionalContracts": [],
      "isFixedGasLimit": false
    },
    {
      "hash": "0xc7d4116ede7b27cd984402c00d34a22a89039822aad1bf0d0ff032c49c05e00d",
      "transactionType": "CALL",
      "contractName": null,
      "contractAddress": "0x665566b12f2e9e93d55f0f2ffdeae46553bd037d",
      "function": "addDemoVolume(uint256)",
      "arguments": [
        "100000000000"
      ],
      "transaction": {
        "from": "0x38c35a030ac45a511a7930dffd93fcdc2f67b6a8",
        "to": "0x665566b12f2e9e93d55f0f2ffdeae46553bd037d",
        "gas": "0x8f60e9e",
        "value": "0x0",
        "input": "0xb4bd6905000000000000000000000000000000000000000000000000000000174876e800",
        "nonce": "0x7a",
        "chainId": "0x138b"
      },
      "additionalContracts": [],
      "isFixedGasLimit": false
    },
    {
      "hash": "0xbe310d13172ac7c9cc471da9a63612326e108550f2225908f89b7f8aaa518b1e",
      "transactionType": "CALL",
      "contractName": null,
      "contractAddress": "0x665566b12f2e9e93d55f0f2ffdeae46553bd037d",
      "function": "recordDailySnapshot()",
      "arguments": [],
      "transaction": {
        "from": "0x38c35a030ac45a511a7930dffd93fcdc2f67b6a8",
        "to": "0x665566b12f2e9e93d55f0f2ffdeae46553bd037d",
        "gas": "0x2b755341",
        "value": "0x0",
        "input": "0xb0743d0a",
        "nonce": "0x7b",
        "chainId": "0x138b"
      },
      "additionalContracts": [],
      "isFixedGasLimit": false
    },
    {
      "hash": "0xda4e1dbe58f353a79e16ea246733fee0fe0dbf0b3ffaeedd2e5deada1888b3c2",
      "transactionType": "CALL",
      "contractName": null,
      "contractAddress": "0x665566b12f2e9e93d55f0f2ffdeae46553bd037d",
      "function": "addDemoVolume(uint256)",
      "arguments": [
        "100000000000"
      ],
      "transaction": {
        "from": "0x38c35a030ac45a511a7930dffd93fcdc2f67b6a8",
        "to": "0x665566b12f2e9e93d55f0f2ffdeae46553bd037d",
        "gas": "0x8f60e9e",
        "value": "0x0",
        "input": "0xb4bd6905000000000000000000000000000000000000000000000000000000174876e800",
        "nonce": "0x7c",
        "chainId": "0x138b"
      },
      "additionalContracts": [],
      "isFixedGasLimit": false
    },
    {
      "hash": "0x86de7cfc5b91d5f45c5a7f6eb8f17de69f728aa60852c668181554bd7349ca7f",
      "transactionType": "CALL",
      "contractName": null,
      "contractAddress": "0x665566b12f2e9e93d55f0f2ffdeae46553bd037d",
      "function": "recordDailySnapshot()",
      "arguments": [],
      "transaction": {
        "from": "0x38c35a030ac45a511a7930dffd93fcdc2f67b6a8",
        "to": "0x665566b12f2e9e93d55f0f2ffdeae46553bd037d",
        "gas": "0x2b755341",
        "value": "0x0",
        "input": "0xb0743d0a",
        "nonce": "0x7d",
        "chainId": "0x138b"
      },
      "additionalContracts": [],
      "isFixedGasLimit": false
    },
    {
      "hash": "0x5b23f879577d288be5bfd5086bc0e52a12a556e2e122d57a5ebc36d265c23f8f",
      "transactionType": "CALL",
      "contractName": null,
      "contractAddress": "0x665566b12f2e9e93d55f0f2ffdeae46553bd037d",
      "function": "addDemoVolume(uint256)",
      "arguments": [
        "100000000000"
      ],
      "transaction": {
        "from": "0x38c35a030ac45a511a7930dffd93fcdc2f67b6a8",
        "to": "0x665566b12f2e9e93d55f0f2ffdeae46553bd037d",
        "gas": "0x8f60e9e",
        "value": "0x0",
        "input": "0xb4bd6905000000000000000000000000000000000000000000000000000000174876e800",
        "nonce": "0x7e",
        "chainId": "0x138b"
      },
      "additionalContracts": [],
      "isFixedGasLimit": false
    },
    {
      "hash": "0xe6060f46d3b82da6f2b66e45e79cb59a903a99ed8d9e6154324ad8fcfff66a45",
      "transactionType": "CALL",
      "contractName": null,
      "contractAddress": "0x665566b12f2e9e93d55f0f2ffdeae46553bd037d",
      "function": "recordDailySnapshot()",
      "arguments": [],
      "transaction": {
        "from": "0x38c35a030ac45a511a7930dffd93fcdc2f67b6a8",
        "to": "0x665566b12f2e9e93d55f0f2ffdeae46553bd037d",
        "gas": "0x2b755341",
        "value": "0x0",
        "input": "0xb0743d0a",
        "nonce": "0x7f",
        "chainId": "0x138b"
      },
      "additionalContracts": [],
      "isFixedGasLimit": false
    },
    {
      "hash": "0xb808e92819e1b052637ddc14c0fdac075bb4dab502fab2b71b25be2d5adc817e",
      "transactionType": "CALL",
      "contractName": "MockUSDC",
      "contractAddress": "0xcb456899a90bc65ba19b899316623c481e3ebdcb",
      "function": "approve(address,uint256)",
      "arguments": [
        "0xF5DC8dE141b22D054621C9C413A40b95AC0d226f",
        "15000000000"
      ],
      "transaction": {
        "from": "0x38c35a030ac45a511a7930dffd93fcdc2f67b6a8",
        "to": "0xcb456899a90bc65ba19b899316623c481e3ebdcb",
        "gas": "0xdd3e7da",
        "value": "0x0",
        "input": "0x095ea7b3000000000000000000000000f5dc8de141b22d054621c9c413a40b95ac0d226f000000000000000000000000000000000000000000000000000000037e11d600",
        "nonce": "0x80",
        "chainId": "0x138b"
      },
      "additionalContracts": [],
      "isFixedGasLimit": false
    },
    {
      "hash": "0x5c9d80820c8006fed67e7ce739981506a68a6c7d69a4b377f751e5aa908786ae",
      "transactionType": "CALL",
      "contractName": null,
      "contractAddress": "0xf5dc8de141b22d054621c9c413a40b95ac0d226f",
      "function": "deposit(uint256)",
      "arguments": [
        "15000000000"
      ],
      "transaction": {
        "from": "0x38c35a030ac45a511a7930dffd93fcdc2f67b6a8",
        "to": "0xf5dc8de141b22d054621c9c413a40b95ac0d226f",
        "gas": "0x9b25e",
        "value": "0x0",
        "input": "0xb6b55f25000000000000000000000000000000000000000000000000000000037e11d600",
        "nonce": "0x81",
        "chainId": "0x138b"
      },
      "additionalContracts": [],
      "isFixedGasLimit": false
    },
    {
      "hash": "0x8b616fcb4ff16774fb8cb68373e05cdafbaa651b66060b4768692705f2ef5e81",
      "transactionType": "CALL",
      "contractName": null,
      "contractAddress": "0x19600cb6458e903f2ad335592046bd786c214677",
      "function": "forceUpdateBucketStatuses(address)",
      "arguments": [
        "0x38C35a030Ac45A511A7930DffD93fcdc2F67B6A8"
      ],
      "transaction": {
        "from": "0x38c35a030ac45a511a7930dffd93fcdc2f67b6a8",
        "to": "0x19600cb6458e903f2ad335592046bd786c214677",
        "gas": "0xbf3c696",
        "value": "0x0",
        "input": "0x57d033e700000000000000000000000038c35a030ac45a511a7930dffd93fcdc2f67b6a8",
        "nonce": "0x82",
        "chainId": "0x138b"
      },
      "additionalContracts": [],
      "isFixedGasLimit": false
    },
    {
      "hash": "0x3d230636b06e3031c1410f2469d81fc76845b00dee6b83ef6a9e389a31395425",
      "transactionType": "CALL",
      "contractName": null,
      "contractAddress": "0xf5dc8de141b22d054621c9c413a40b95ac0d226f",
      "function": "transfer(address,uint256)",
      "arguments": [
        "0x2222222222222222222222222222222222222222",
        "8000000000"
      ],
      "transaction": {
        "from": "0x38c35a030ac45a511a7930dffd93fcdc2f67b6a8",
        "to": "0xf5dc8de141b22d054621c9c413a40b95ac0d226f",
        "gas": "0x46d52b92",
        "value": "0x0",
        "input": "0xa9059cbb000000000000000000000000222222222222222222222222222222222222222200000000000000000000000000000000000000000000000000000001dcd65000",
        "nonce": "0x83",
        "chainId": "0x138b"
      },
      "additionalContracts": [],
      "isFixedGasLimit": false
    },
    {
      "hash": "0x11a2506478d8c4a8a55f9f6f7255a59404016c80b99fb836fca7955c5f3ec82b",
      "transactionType": "CALL",
      "contractName": "MockUSDC",
      "contractAddress": "0xcb456899a90bc65ba19b899316623c481e3ebdcb",
      "function": "mintAdmin(address,uint256)",
      "arguments": [
        "0x2222222222222222222222222222222222222222",
        "30000000000"
      ],
      "transaction": {
        "from": "0x38c35a030ac45a511a7930dffd93fcdc2f67b6a8",
        "to": "0xcb456899a90bc65ba19b899316623c481e3ebdcb",
        "gas": "0xae762c0",
        "value": "0x0",
        "input": "0xc3a71999000000000000000000000000222222222222222222222222222222222222222200000000000000000000000000000000000000000000000000000006fc23ac00",
        "nonce": "0x84",
        "chainId": "0x138b"
      },
      "additionalContracts": [],
      "isFixedGasLimit": false
    },
    {
      "hash": "0x72dc196c6346f665aff316c52aebedd335a43395ffee4018ac31ccd12eeb2264",
      "transactionType": "CALL",
      "contractName": "MockUSDC",
      "contractAddress": "0xcb456899a90bc65ba19b899316623c481e3ebdcb",
      "function": "approve(address,uint256)",
      "arguments": [
        "0xF5DC8dE141b22D054621C9C413A40b95AC0d226f",
        "12000000000"
      ],
      "transaction": {
        "from": "0x38c35a030ac45a511a7930dffd93fcdc2f67b6a8",
        "to": "0xcb456899a90bc65ba19b899316623c481e3ebdcb",
        "gas": "0xdd3e7da",
        "value": "0x0",
        "input": "0x095ea7b3000000000000000000000000f5dc8de141b22d054621c9c413a40b95ac0d226f00000000000000000000000000000000000000000000000000000002cb417800",
        "nonce": "0x85",
        "chainId": "0x138b"
      },
      "additionalContracts": [],
      "isFixedGasLimit": false
    },
    {
      "hash": "0x460ff4b96e81391bc8fcd43ff217d7f1795267acab9d5664b0d0bded52071e54",
      "transactionType": "CALL",
      "contractName": null,
      "contractAddress": "0xf5dc8de141b22d054621c9c413a40b95ac0d226f",
      "function": "deposit(uint256)",
      "arguments": [
        "12000000000"
      ],
      "transaction": {
        "from": "0x38c35a030ac45a511a7930dffd93fcdc2f67b6a8",
        "to": "0xf5dc8de141b22d054621c9c413a40b95ac0d226f",
        "gas": "0x9b25e",
        "value": "0x0",
        "input": "0xb6b55f2500000000000000000000000000000000000000000000000000000002cb417800",
        "nonce": "0x86",
        "chainId": "0x138b"
      },
      "additionalContracts": [],
      "isFixedGasLimit": false
    },
    {
      "hash": "0x380af47fa478018c6e763f79884526081d6e9c9a2c684a288a837cb848ef8800",
      "transactionType": "CALL",
      "contractName": null,
      "contractAddress": "0xf5dc8de141b22d054621c9c413a40b95ac0d226f",
      "function": "transfer(address,uint256)",
      "arguments": [
        "0x38C35a030Ac45A511A7930DffD93fcdc2F67B6A8",
        "5000000000"
      ],
      "transaction": {
        "from": "0x38c35a030ac45a511a7930dffd93fcdc2f67b6a8",
        "to": "0xf5dc8de141b22d054621c9c413a40b95ac0d226f",
        "gas": "0x39baa3ee",
        "value": "0x0",
        "input": "0xa9059cbb00000000000000000000000038c35a030ac45a511a7930dffd93fcdc2f67b6a8000000000000000000000000000000000000000000000000000000012a05f200",
        "nonce": "0x87",
        "chainId": "0x138b"
      },
      "additionalContracts": [],
      "isFixedGasLimit": false
    },
    {
      "hash": "0x233fb94d1ec08a2b884300719fe6e383acbfc27fbb1a2287f89d5229b4b3c927",
      "transactionType": "CALL",
      "contractName": null,
      "contractAddress": "0x665566b12f2e9e93d55f0f2ffdeae46553bd037d",
      "function": "addDemoVolume(uint256)",
      "arguments": [
        "13000000000"
      ],
      "transaction": {
        "from": "0x38c35a030ac45a511a7930dffd93fcdc2f67b6a8",
        "to": "0x665566b12f2e9e93d55f0f2ffdeae46553bd037d",
        "gas": "0x8f60e9e",
        "value": "0x0",
        "input": "0xb4bd69050000000000000000000000000000000000000000000000000000000306dc4200",
        "nonce": "0x88",
        "chainId": "0x138b"
      },
      "additionalContracts": [],
      "isFixedGasLimit": false
    }
  ],
  "receipts": [
    {
      "status": "0x1",
      "cumulativeGasUsed": "0x6bcb879",
      "logs": [
        {
          "address": "0x665566b12f2e9e93d55f0f2ffdeae46553bd037d",
          "topics": [
            "0xa248d81b377afe8736fe397f5a9f8f0d7c581e67ff6ae4037df29a672a92133b"
          ],
          "data": "0x000000000000000000000000000000000000000000000000000000746a52880000000000000000000000000000000000000000000000000000000000695f9171",
          "blockHash": "0x2d023a7b2681be8a4ae7bf9cf765eb016c8515254eb275a561dd9bccaf63a7d4",
          "blockNumber": "0x1fa0748",
          "blockTimestamp": "0x695f9171",
          "transactionHash": "0x5620bff8568b75c27114227510f34cec66a85b9dc78e0c1dfea34d6b381918cc",
          "transactionIndex": "0x1",
          "logIndex": "0x0",
          "removed": false
        }
      ],
      "logsBloom": "0x00000000000000000000000000000000000000000000000000000000000000000000000000000000000000000000000000000000000000000000000000000000000000000000000000000000000000000000000000000000000000008000000000000000000000000000000000000000000000000000000000000200020000000000000000000000000000000000000000000000000000000000000000000000000000000000000000000000002000000000000000000000000000000000000000000000000000000000000000000000000000000000000000000000000000000000000000000000000200000000000000000000000000000000100000000000",
      "type": "0x2",
      "transactionHash": "0x5620bff8568b75c27114227510f34cec66a85b9dc78e0c1dfea34d6b381918cc",
      "transactionIndex": "0x1",
      "blockHash": "0x2d023a7b2681be8a4ae7bf9cf765eb016c8515254eb275a561dd9bccaf63a7d4",
      "blockNumber": "0x1fa0748",
      "gasUsed": "0x6bc0180",
      "effectiveGasPrice": "0x132b3a0",
      "from": "0x38c35a030ac45a511a7930dffd93fcdc2f67b6a8",
      "to": "0x665566b12f2e9e93d55f0f2ffdeae46553bd037d",
      "contractAddress": null,
      "l1Fee": "0x8741c1",
      "l1FeeScalar": "0.01",
      "l1GasPrice": "0x7f",
      "l1GasUsed": "0x8ac",
      "tokenRatio": "0xc48"
    },
    {
      "status": "0x1",
      "cumulativeGasUsed": "0x5b3a597",
      "logs": [
        {
          "address": "0x665566b12f2e9e93d55f0f2ffdeae46553bd037d",
          "topics": [
            "0xb45cd64a5416a536ca725507231d1c5910ba1ea2e12d16eb24db17764ea4deae"
          ],
          "data": "0x00000000000000000000000000000000000000000000000000000012a05f2000",
          "blockHash": "0x0b376f00d99f4d52618e2566ac024e490f29bd36c4d1b4ac539f2df766507d41",
          "blockNumber": "0x1fa074a",
          "blockTimestamp": "0x695f9175",
          "transactionHash": "0x3e4fbcfd20b1ae835f2759a53c1d9f34b7c9f046028933a6df807e8c735d84b6",
          "transactionIndex": "0x1",
          "logIndex": "0x0",
          "removed": false
        }
      ],
      "logsBloom": "0x00000000000000000000000000000000000000000000000000000000000000000000000000000000000000000000000000000000000000000000000000000000000000000000000000000000000000000000000000000000000000008000000000000000000000000100000000000000000000000000000000000000000000000000000000000000000020000000000000000000000000000000000000000000000000000000000000000000000000000000000004000000000000000000000000000000000000000000000000000000000000000000000000000000000000000000000000000000000200000000000000000000000000000000100000000000",
      "type": "0x2",
      "transactionHash": "0x3e4fbcfd20b1ae835f2759a53c1d9f34b7c9f046028933a6df807e8c735d84b6",
      "transactionIndex": "0x1",
      "blockHash": "0x0b376f00d99f4d52618e2566ac024e490f29bd36c4d1b4ac539f2df766507d41",
      "blockNumber": "0x1fa074a",
      "gasUsed": "0x5b2ee9e",
      "effectiveGasPrice": "0x132b3a0",
      "from": "0x38c35a030ac45a511a7930dffd93fcdc2f67b6a8",
      "to": "0x665566b12f2e9e93d55f0f2ffdeae46553bd037d",
      "contractAddress": null,
      "l1Fee": "0x8741c1",
      "l1FeeScalar": "0.01",
      "l1GasPrice": "0x7f",
      "l1GasUsed": "0x8ac",
      "tokenRatio": "0xc48"
    },
    {
      "status": "0x1",
      "cumulativeGasUsed": "0x15f1271e",
      "logs": [
        {
          "address": "0x665566b12f2e9e93d55f0f2ffdeae46553bd037d",
          "topics": [
            "0x379107d1f9081909982aadf58c4807ad21cd02ab71b5c30f66fcd6f92138ea24"
          ],
          "data": "0x00000000000000000000000000000000000000000000000000000018ae17a40000000000000000000000000000000000000000000000000000000000695f9179",
          "blockHash": "0x249d82eb13f2e8e8765f87484302bf70ab0dc09d05b5c568ea2a6947007a1d23",
          "blockNumber": "0x1fa074c",
          "blockTimestamp": "0x695f9179",
          "transactionHash": "0x91e61d301e92f4e2efecaeaaf98caaa8da230aec153003cfc662d200b5b034ee",
          "transactionIndex": "0x1",
          "logIndex": "0x0",
          "removed": false
        }
      ],
      "logsBloom": "0x00000000000000000000000000000000000000000000000000000000000000000000000000000000000000000000000000000000000000000000000000000002000000000000000000000000000000000000000000000000000000008000000000000000000000000000000000004000000080000000000000000000000000000000000000000000000000000000000000000000000000000000000000000000000000000000000000000000000000000000000000000000000000000000000000000000000000000000000000000000000000000000000000000000000000000000000000000000000200000000000000000000000000000000100000000000",
      "type": "0x2",
      "transactionHash": "0x91e61d301e92f4e2efecaeaaf98caaa8da230aec153003cfc662d200b5b034ee",
      "transactionIndex": "0x1",
      "blockHash": "0x249d82eb13f2e8e8765f87484302bf70ab0dc09d05b5c568ea2a6947007a1d23",
      "blockNumber": "0x1fa074c",
      "gasUsed": "0x15f02d59",
      "effectiveGasPrice": "0x132b3a0",
      "from": "0x38c35a030ac45a511a7930dffd93fcdc2f67b6a8",
      "to": "0x665566b12f2e9e93d55f0f2ffdeae46553bd037d",
      "contractAddress": null,
      "l1Fee": "0x8656f0",
      "l1FeeScalar": "0.01",
      "l1GasPrice": "0x89",
      "l1GasUsed": "0x7fc",
      "tokenRatio": "0xc48"
    },
    {
      "status": "0x1",
      "cumulativeGasUsed": "0x8e807bd",
      "logs": [
        {
          "address": "0x665566b12f2e9e93d55f0f2ffdeae46553bd037d",
          "topics": [
            "0xb45cd64a5416a536ca725507231d1c5910ba1ea2e12d16eb24db17764ea4deae"
          ],
          "data": "0x00000000000000000000000000000000000000000000000000000012a05f2000",
          "blockHash": "0xeeab7baaba69af8be14b90548220f80b23c2d8831d4b2a6d21bf3cfccc078bd3",
          "blockNumber": "0x1fa074e",
          "blockTimestamp": "0x695f917d",
          "transactionHash": "0x070aefbe4fdd25e922f371081092ed889b751ed39bcdd74fef337baf8b8d27be",
          "transactionIndex": "0x1",
          "logIndex": "0x0",
          "removed": false
        }
      ],
      "logsBloom": "0x00000000000000000000000000000000000000000000000000000000000000000000000000000000000000000000000000000000000000000000000000000000000000000000000000000000000000000000000000000000000000008000000000000000000000000100000000000000000000000000000000000000000000000000000000000000000020000000000000000000000000000000000000000000000000000000000000000000000000000000000004000000000000000000000000000000000000000000000000000000000000000000000000000000000000000000000000000000000200000000000000000000000000000000100000000000",
      "type": "0x2",
      "transactionHash": "0x070aefbe4fdd25e922f371081092ed889b751ed39bcdd74fef337baf8b8d27be",
      "transactionIndex": "0x1",
      "blockHash": "0xeeab7baaba69af8be14b90548220f80b23c2d8831d4b2a6d21bf3cfccc078bd3",
      "blockNumber": "0x1fa074e",
      "gasUsed": "0x8e750c4",
      "effectiveGasPrice": "0x132b3a0",
      "from": "0x38c35a030ac45a511a7930dffd93fcdc2f67b6a8",
      "to": "0x665566b12f2e9e93d55f0f2ffdeae46553bd037d",
      "contractAddress": null,
      "l1Fee": "0x91e831",
      "l1FeeScalar": "0.01",
      "l1GasPrice": "0x89",
      "l1GasUsed": "0x8ac",
      "tokenRatio": "0xc48"
    },
    {
      "status": "0x1",
      "cumulativeGasUsed": "0x165c5221",
      "logs": [
        {
          "address": "0x665566b12f2e9e93d55f0f2ffdeae46553bd037d",
          "topics": [
            "0x379107d1f9081909982aadf58c4807ad21cd02ab71b5c30f66fcd6f92138ea24"
          ],
          "data": "0x00000000000000000000000000000000000000000000000000000012a05f200000000000000000000000000000000000000000000000000000000000695f9181",
          "blockHash": "0xdac56156c926d0496b7a7617d2ba329e74da8193626fb95061201d98ffe574b5",
          "blockNumber": "0x1fa0750",
          "blockTimestamp": "0x695f9181",
          "transactionHash": "0x2cc69b62e2c67f69af51d9c9dc5aff4cfd7b4e078b5430c29801689b1a257a47",
          "transactionIndex": "0x1",
          "logIndex": "0x0",
          "removed": false
        }
      ],
      "logsBloom": "0x00000000000000000000000000000000000000000000000000000000000000000000000000000000000000000000000000000000000000000000000000000002000000000000000000000000000000000000000000000000000000008000000000000000000000000000000000004000000080000000000000000000000000000000000000000000000000000000000000000000000000000000000000000000000000000000000000000000000000000000000000000000000000000000000000000000000000000000000000000000000000000000000000000000000000000000000000000000000200000000000000000000000000000000100000000000",
      "type": "0x2",
      "transactionHash": "0x2cc69b62e2c67f69af51d9c9dc5aff4cfd7b4e078b5430c29801689b1a257a47",
      "transactionIndex": "0x1",
      "blockHash": "0xdac56156c926d0496b7a7617d2ba329e74da8193626fb95061201d98ffe574b5",
      "blockNumber": "0x1fa0750",
      "gasUsed": "0x165b9b28",
      "effectiveGasPrice": "0x132b3a0",
      "from": "0x38c35a030ac45a511a7930dffd93fcdc2f67b6a8",
      "to": "0x665566b12f2e9e93d55f0f2ffdeae46553bd037d",
      "contractAddress": null,
      "l1Fee": "0x8656f0",
      "l1FeeScalar": "0.01",
      "l1GasPrice": "0x89",
      "l1GasUsed": "0x7fc",
      "tokenRatio": "0xc48"
    },
    {
      "status": "0x1",
      "cumulativeGasUsed": "0x8e84a89",
      "logs": [
        {
          "address": "0x665566b12f2e9e93d55f0f2ffdeae46553bd037d",
          "topics": [
            "0xb45cd64a5416a536ca725507231d1c5910ba1ea2e12d16eb24db17764ea4deae"
          ],
          "data": "0x00000000000000000000000000000000000000000000000000000012a05f2000",
          "blockHash": "0xbafc36f67ad0ca87ebe4084d0afa78b83d3cebb4fa5b5eb3fe2b5332d1679478",
          "blockNumber": "0x1fa0752",
          "blockTimestamp": "0x695f9185",
          "transactionHash": "0x29c88c78b08852d0462a9d6a7cc972e8fb6071358cc71e0c17ded2bd6a9ec612",
          "transactionIndex": "0x1",
          "logIndex": "0x0",
          "removed": false
        }
      ],
      "logsBloom": "0x00000000000000000000000000000000000000000000000000000000000000000000000000000000000000000000000000000000000000000000000000000000000000000000000000000000000000000000000000000000000000008000000000000000000000000100000000000000000000000000000000000000000000000000000000000000000020000000000000000000000000000000000000000000000000000000000000000000000000000000000004000000000000000000000000000000000000000000000000000000000000000000000000000000000000000000000000000000000200000000000000000000000000000000100000000000",
      "type": "0x2",
      "transactionHash": "0x29c88c78b08852d0462a9d6a7cc972e8fb6071358cc71e0c17ded2bd6a9ec612",
      "transactionIndex": "0x1",
      "blockHash": "0xbafc36f67ad0ca87ebe4084d0afa78b83d3cebb4fa5b5eb3fe2b5332d1679478",
      "blockNumber": "0x1fa0752",
      "gasUsed": "0x8e750c4",
      "effectiveGasPrice": "0x132b3a0",
      "from": "0x38c35a030ac45a511a7930dffd93fcdc2f67b6a8",
      "to": "0x665566b12f2e9e93d55f0f2ffdeae46553bd037d",
      "contractAddress": null,
      "l1Fee": "0xa1e1d9",
      "l1FeeScalar": "0.01",
      "l1GasPrice": "0x98",
      "l1GasUsed": "0x8ac",
      "tokenRatio": "0xc48"
    },
    {
      "status": "0x1",
      "cumulativeGasUsed": "0x165c5221",
      "logs": [
        {
          "address": "0x665566b12f2e9e93d55f0f2ffdeae46553bd037d",
          "topics": [
            "0x379107d1f9081909982aadf58c4807ad21cd02ab71b5c30f66fcd6f92138ea24"
          ],
          "data": "0x00000000000000000000000000000000000000000000000000000012a05f200000000000000000000000000000000000000000000000000000000000695f9189",
          "blockHash": "0xc44a8b88eb8a29b5f810f5d66de17b6f7ad7164aaf7e4b902c277c10f888b7eb",
          "blockNumber": "0x1fa0754",
          "blockTimestamp": "0x695f9189",
          "transactionHash": "0x7c46d6efe143526fd7c482435cf9f8f8f74dbbad2f54dba2cab8f7565d41a900",
          "transactionIndex": "0x1",
          "logIndex": "0x0",
          "removed": false
        }
      ],
      "logsBloom": "0x00000000000000000000000000000000000000000000000000000000000000000000000000000000000000000000000000000000000000000000000000000002000000000000000000000000000000000000000000000000000000008000000000000000000000000000000000004000000080000000000000000000000000000000000000000000000000000000000000000000000000000000000000000000000000000000000000000000000000000000000000000000000000000000000000000000000000000000000000000000000000000000000000000000000000000000000000000000000200000000000000000000000000000000100000000000",
      "type": "0x2",
      "transactionHash": "0x7c46d6efe143526fd7c482435cf9f8f8f74dbbad2f54dba2cab8f7565d41a900",
      "transactionIndex": "0x1",
      "blockHash": "0xc44a8b88eb8a29b5f810f5d66de17b6f7ad7164aaf7e4b902c277c10f888b7eb",
      "blockNumber": "0x1fa0754",
      "gasUsed": "0x165b9b28",
      "effectiveGasPrice": "0x132b3a0",
      "from": "0x38c35a030ac45a511a7930dffd93fcdc2f67b6a8",
      "to": "0x665566b12f2e9e93d55f0f2ffdeae46553bd037d",
      "contractAddress": null,
      "l1Fee": "0x950c5e",
      "l1FeeScalar": "0.01",
      "l1GasPrice": "0x98",
      "l1GasUsed": "0x7fc",
      "tokenRatio": "0xc48"
    },
    {
      "status": "0x1",
      "cumulativeGasUsed": "0x8e807bd",
      "logs": [
        {
          "address": "0x665566b12f2e9e93d55f0f2ffdeae46553bd037d",
          "topics": [
            "0xb45cd64a5416a536ca725507231d1c5910ba1ea2e12d16eb24db17764ea4deae"
          ],
          "data": "0x00000000000000000000000000000000000000000000000000000012a05f2000",
          "blockHash": "0x3b29e8d0b40d714e537f8875a3b954df8fbd6c39892e2b3cbb08b5c469ce1d4d",
          "blockNumber": "0x1fa0756",
          "blockTimestamp": "0x695f918d",
          "transactionHash": "0x66517cb1d0ed2fd9a81dba7784a645eb0e64ad88a2832f3811db8c1c39e7742d",
          "transactionIndex": "0x1",
          "logIndex": "0x0",
          "removed": false
        }
      ],
      "logsBloom": "0x00000000000000000000000000000000000000000000000000000000000000000000000000000000000000000000000000000000000000000000000000000000000000000000000000000000000000000000000000000000000000008000000000000000000000000100000000000000000000000000000000000000000000000000000000000000000020000000000000000000000000000000000000000000000000000000000000000000000000000000000004000000000000000000000000000000000000000000000000000000000000000000000000000000000000000000000000000000000200000000000000000000000000000000100000000000",
      "type": "0x2",
      "transactionHash": "0x66517cb1d0ed2fd9a81dba7784a645eb0e64ad88a2832f3811db8c1c39e7742d",
      "transactionIndex": "0x1",
      "blockHash": "0x3b29e8d0b40d714e537f8875a3b954df8fbd6c39892e2b3cbb08b5c469ce1d4d",
      "blockNumber": "0x1fa0756",
      "gasUsed": "0x8e750c4",
      "effectiveGasPrice": "0x132b3a0",
      "from": "0x38c35a030ac45a511a7930dffd93fcdc2f67b6a8",
      "to": "0x665566b12f2e9e93d55f0f2ffdeae46553bd037d",
      "contractAddress": null,
      "l1Fee": "0xa1e1d9",
      "l1FeeScalar": "0.01",
      "l1GasPrice": "0x98",
      "l1GasUsed": "0x8ac",
      "tokenRatio": "0xc48"
    },
    {
      "status": "0x1",
      "cumulativeGasUsed": "0x165c94e1",
      "logs": [
        {
          "address": "0x665566b12f2e9e93d55f0f2ffdeae46553bd037d",
          "topics": [
            "0x379107d1f9081909982aadf58c4807ad21cd02ab71b5c30f66fcd6f92138ea24"
          ],
          "data": "0x00000000000000000000000000000000000000000000000000000012a05f200000000000000000000000000000000000000000000000000000000000695f9191",
          "blockHash": "0x835869707ffed0aa9d57d2a234521c6dc7c686c58230da6a62ade118142489ee",
          "blockNumber": "0x1fa0758",
          "blockTimestamp": "0x695f9191",
          "transactionHash": "0x1f01e2bf69149c718a85de8d1308e4811073d1e52cf92b55851fcbb8827e5b82",
          "transactionIndex": "0x1",
          "logIndex": "0x0",
          "removed": false
        }
      ],
      "logsBloom": "0x00000000000000000000000000000000000000000000000000000000000000000000000000000000000000000000000000000000000000000000000000000002000000000000000000000000000000000000000000000000000000008000000000000000000000000000000000004000000080000000000000000000000000000000000000000000000000000000000000000000000000000000000000000000000000000000000000000000000000000000000000000000000000000000000000000000000000000000000000000000000000000000000000000000000000000000000000000000000200000000000000000000000000000000100000000000",
      "type": "0x2",
      "transactionHash": "0x1f01e2bf69149c718a85de8d1308e4811073d1e52cf92b55851fcbb8827e5b82",
      "transactionIndex": "0x1",
      "blockHash": "0x835869707ffed0aa9d57d2a234521c6dc7c686c58230da6a62ade118142489ee",
      "blockNumber": "0x1fa0758",
      "gasUsed": "0x165b9b28",
      "effectiveGasPrice": "0x132b3a0",
      "from": "0x38c35a030ac45a511a7930dffd93fcdc2f67b6a8",
      "to": "0x665566b12f2e9e93d55f0f2ffdeae46553bd037d",
      "contractAddress": null,
      "l1Fee": "0x97026d",
      "l1FeeScalar": "0.01",
      "l1GasPrice": "0x9a",
      "l1GasUsed": "0x7fc",
      "tokenRatio": "0xc48"
    },
    {
      "status": "0x1",
      "cumulativeGasUsed": "0x8e807b1",
      "logs": [
        {
          "address": "0x665566b12f2e9e93d55f0f2ffdeae46553bd037d",
          "topics": [
            "0xb45cd64a5416a536ca725507231d1c5910ba1ea2e12d16eb24db17764ea4deae"
          ],
          "data": "0x00000000000000000000000000000000000000000000000000000012a05f2000",
          "blockHash": "0x392bc3db1e94355f619110bee71028f18bd6988191c125a6c1192790224a6ed5",
          "blockNumber": "0x1fa075a",
          "blockTimestamp": "0x695f9195",
          "transactionHash": "0xc21e4d9f24d2cbfbb2c43963a8b20f7a2299929523161da895b3c2b3c042299e",
          "transactionIndex": "0x1",
          "logIndex": "0x0",
          "removed": false
        }
      ],
      "logsBloom": "0x00000000000000000000000000000000000000000000000000000000000000000000000000000000000000000000000000000000000000000000000000000000000000000000000000000000000000000000000000000000000000008000000000000000000000000100000000000000000000000000000000000000000000000000000000000000000020000000000000000000000000000000000000000000000000000000000000000000000000000000000004000000000000000000000000000000000000000000000000000000000000000000000000000000000000000000000000000000000200000000000000000000000000000000100000000000",
      "type": "0x2",
      "transactionHash": "0xc21e4d9f24d2cbfbb2c43963a8b20f7a2299929523161da895b3c2b3c042299e",
      "transactionIndex": "0x1",
      "blockHash": "0x392bc3db1e94355f619110bee71028f18bd6988191c125a6c1192790224a6ed5",
      "blockNumber": "0x1fa075a",
      "gasUsed": "0x8e750c4",
      "effectiveGasPrice": "0x132b3a0",
      "from": "0x38c35a030ac45a511a7930dffd93fcdc2f67b6a8",
      "to": "0x665566b12f2e9e93d55f0f2ffdeae46553bd037d",
      "contractAddress": null,
      "l1Fee": "0xa40323",
      "l1FeeScalar": "0.01",
      "l1GasPrice": "0x9a",
      "l1GasUsed": "0x8ac",
      "tokenRatio": "0xc48"
    },
    {
      "status": "0x1",
      "cumulativeGasUsed": "0x15f0e446",
      "logs": [
        {
          "address": "0x665566b12f2e9e93d55f0f2ffdeae46553bd037d",
          "topics": [
            "0x379107d1f9081909982aadf58c4807ad21cd02ab71b5c30f66fcd6f92138ea24"
          ],
          "data": "0x00000000000000000000000000000000000000000000000000000012a05f200000000000000000000000000000000000000000000000000000000000695f9199",
          "blockHash": "0x4f17039a7c22edaab1560bce890ad4023798e5d319bbde1ca6889dad6df356fb",
          "blockNumber": "0x1fa075c",
          "blockTimestamp": "0x695f9199",
          "transactionHash": "0x9c2b1118269f8a260db46264c86005ea1e2791ce77a93bd6d20a3ef7aec92820",
          "transactionIndex": "0x1",
          "logIndex": "0x0",
          "removed": false
        }
      ],
      "logsBloom": "0x00000000000000000000000000000000000000000000000000000000000000000000000000000000000000000000000000000000000000000000000000000002000000000000000000000000000000000000000000000000000000008000000000000000000000000000000000004000000080000000000000000000000000000000000000000000000000000000000000000000000000000000000000000000000000000000000000000000000000000000000000000000000000000000000000000000000000000000000000000000000000000000000000000000000000000000000000000000000200000000000000000000000000000000100000000000",
      "type": "0x2",
      "transactionHash": "0x9c2b1118269f8a260db46264c86005ea1e2791ce77a93bd6d20a3ef7aec92820",
      "transactionIndex": "0x1",
      "blockHash": "0x4f17039a7c22edaab1560bce890ad4023798e5d319bbde1ca6889dad6df356fb",
      "blockNumber": "0x1fa075c",
      "gasUsed": "0x15f02d59",
      "effectiveGasPrice": "0x132b3a0",
      "from": "0x38c35a030ac45a511a7930dffd93fcdc2f67b6a8",
      "to": "0x665566b12f2e9e93d55f0f2ffdeae46553bd037d",
      "contractAddress": null,
      "l1Fee": "0x961f78",
      "l1FeeScalar": "0.01",
      "l1GasPrice": "0x9a",
      "l1GasUsed": "0x7f0",
      "tokenRatio": "0xc48"
    },
    {
      "status": "0x1",
      "cumulativeGasUsed": "0x8e84a7d",
      "logs": [
        {
          "address": "0x665566b12f2e9e93d55f0f2ffdeae46553bd037d",
          "topics": [
            "0xb45cd64a5416a536ca725507231d1c5910ba1ea2e12d16eb24db17764ea4deae"
          ],
          "data": "0x00000000000000000000000000000000000000000000000000000012a05f2000",
          "blockHash": "0x3aa71dbbbb77cbc2a43bbf1a380af398b2af910086ed261578087eb39c89a34c",
          "blockNumber": "0x1fa075e",
          "blockTimestamp": "0x695f919d",
          "transactionHash": "0xdaec7d002c4f0b1340604d9ce5fabfb51830554557bd530117539ca2140abfd7",
          "transactionIndex": "0x1",
          "logIndex": "0x0",
          "removed": false
        }
      ],
      "logsBloom": "0x00000000000000000000000000000000000000000000000000000000000000000000000000000000000000000000000000000000000000000000000000000000000000000000000000000000000000000000000000000000000000008000000000000000000000000100000000000000000000000000000000000000000000000000000000000000000020000000000000000000000000000000000000000000000000000000000000000000000000000000000004000000000000000000000000000000000000000000000000000000000000000000000000000000000000000000000000000000000200000000000000000000000000000000100000000000",
      "type": "0x2",
      "transactionHash": "0xdaec7d002c4f0b1340604d9ce5fabfb51830554557bd530117539ca2140abfd7",
      "transactionIndex": "0x1",
      "blockHash": "0x3aa71dbbbb77cbc2a43bbf1a380af398b2af910086ed261578087eb39c89a34c",
      "blockNumber": "0x1fa075e",
      "gasUsed": "0x8e750c4",
      "effectiveGasPrice": "0x132b3a0",
      "from": "0x38c35a030ac45a511a7930dffd93fcdc2f67b6a8",
      "to": "0x665566b12f2e9e93d55f0f2ffdeae46553bd037d",
      "contractAddress": null,
      "l1Fee": "0x973b69",
      "l1FeeScalar": "0.01",
      "l1GasPrice": "0x8e",
      "l1GasUsed": "0x8ac",
      "tokenRatio": "0xc48"
    },
    {
      "status": "0x1",
      "cumulativeGasUsed": "0x15f0e446",
      "logs": [
        {
          "address": "0x665566b12f2e9e93d55f0f2ffdeae46553bd037d",
          "topics": [
            "0x379107d1f9081909982aadf58c4807ad21cd02ab71b5c30f66fcd6f92138ea24"
          ],
          "data": "0x00000000000000000000000000000000000000000000000000000012a05f200000000000000000000000000000000000000000000000000000000000695f91a1",
          "blockHash": "0x8a36bd1f98a01e6f8d0e875c6e17a7dcdeb1544594ed5b2b09bed09d3864b74a",
          "blockNumber": "0x1fa0760",
          "blockTimestamp": "0x695f91a1",
          "transactionHash": "0x1d67a0d6582d55fe754b40d1fa310bfa2cd966fe31b70b4432add973753b39b4",
          "transactionIndex": "0x1",
          "logIndex": "0x0",
          "removed": false
        }
      ],
      "logsBloom": "0x00000000000000000000000000000000000000000000000000000000000000000000000000000000000000000000000000000000000000000000000000000002000000000000000000000000000000000000000000000000000000008000000000000000000000000000000000004000000080000000000000000000000000000000000000000000000000000000000000000000000000000000000000000000000000000000000000000000000000000000000000000000000000000000000000000000000000000000000000000000000000000000000000000000000000000000000000000000000200000000000000000000000000000000100000000000",
      "type": "0x2",
      "transactionHash": "0x1d67a0d6582d55fe754b40d1fa310bfa2cd966fe31b70b4432add973753b39b4",
      "transactionIndex": "0x1",
      "blockHash": "0x8a36bd1f98a01e6f8d0e875c6e17a7dcdeb1544594ed5b2b09bed09d3864b74a",
      "blockNumber": "0x1fa0760",
      "gasUsed": "0x15f02d59",
      "effectiveGasPrice": "0x132b3a0",
      "from": "0x38c35a030ac45a511a7930dffd93fcdc2f67b6a8",
      "to": "0x665566b12f2e9e93d55f0f2ffdeae46553bd037d",
      "contractAddress": null,
      "l1Fee": "0x8b3e15",
      "l1FeeScalar": "0.01",
      "l1GasPrice": "0x8e",
      "l1GasUsed": "0x7fc",
      "tokenRatio": "0xc48"
    },
    {
      "status": "0x1",
      "cumulativeGasUsed": "0x8e807b1",
      "logs": [
        {
          "address": "0x665566b12f2e9e93d55f0f2ffdeae46553bd037d",
          "topics": [
            "0xb45cd64a5416a536ca725507231d1c5910ba1ea2e12d16eb24db17764ea4deae"
          ],
          "data": "0x00000000000000000000000000000000000000000000000000000012a05f2000",
          "blockHash": "0xa2faf81e24c536fcf46cb7f5afc197655aa8ffc01e81e773a6d1d5f65fbc5d95",
          "blockNumber": "0x1fa0762",
          "blockTimestamp": "0x695f91a5",
          "transactionHash": "0x7e6d88354321ed75601d6cfec3d0f27de56fcbed36a2ad633e0ac0411435cef7",
          "transactionIndex": "0x1",
          "logIndex": "0x0",
          "removed": false
        }
      ],
      "logsBloom": "0x00000000000000000000000000000000000000000000000000000000000000000000000000000000000000000000000000000000000000000000000000000000000000000000000000000000000000000000000000000000000000008000000000000000000000000100000000000000000000000000000000000000000000000000000000000000000020000000000000000000000000000000000000000000000000000000000000000000000000000000000004000000000000000000000000000000000000000000000000000000000000000000000000000000000000000000000000000000000200000000000000000000000000000000100000000000",
      "type": "0x2",
      "transactionHash": "0x7e6d88354321ed75601d6cfec3d0f27de56fcbed36a2ad633e0ac0411435cef7",
      "transactionIndex": "0x1",
      "blockHash": "0xa2faf81e24c536fcf46cb7f5afc197655aa8ffc01e81e773a6d1d5f65fbc5d95",
      "blockNumber": "0x1fa0762",
      "gasUsed": "0x8e750c4",
      "effectiveGasPrice": "0x132b3a0",
      "from": "0x38c35a030ac45a511a7930dffd93fcdc2f67b6a8",
      "to": "0x665566b12f2e9e93d55f0f2ffdeae46553bd037d",
      "contractAddress": null,
      "l1Fee": "0x966a23",
      "l1FeeScalar": "0.01",
      "l1GasPrice": "0x8e",
      "l1GasUsed": "0x8a0",
      "tokenRatio": "0xc48"
    },
    {
      "status": "0x1",
      "cumulativeGasUsed": "0x15f0e446",
      "logs": [
        {
          "address": "0x665566b12f2e9e93d55f0f2ffdeae46553bd037d",
          "topics": [
            "0x379107d1f9081909982aadf58c4807ad21cd02ab71b5c30f66fcd6f92138ea24"
          ],
          "data": "0x00000000000000000000000000000000000000000000000000000012a05f200000000000000000000000000000000000000000000000000000000000695f91a9",
          "blockHash": "0x9c7fb6c2b7ca89d8392c7ceb03f501b1ccd7b21e0f4d6b62d6dab1ea3b3f047b",
          "blockNumber": "0x1fa0764",
          "blockTimestamp": "0x695f91a9",
          "transactionHash": "0x34d542d5b894ba18af47e94c10e6213fd0604127c4348148443b1a8d789b5edc",
          "transactionIndex": "0x1",
          "logIndex": "0x0",
          "removed": false
        }
      ],
      "logsBloom": "0x00000000000000000000000000000000000000000000000000000000000000000000000000000000000000000000000000000000000000000000000000000002000000000000000000000000000000000000000000000000000000008000000000000000000000000000000000004000000080000000000000000000000000000000000000000000000000000000000000000000000000000000000000000000000000000000000000000000000000000000000000000000000000000000000000000000000000000000000000000000000000000000000000000000000000000000000000000000000200000000000000000000000000000000100000000000",
      "type": "0x2",
      "transactionHash": "0x34d542d5b894ba18af47e94c10e6213fd0604127c4348148443b1a8d789b5edc",
      "transactionIndex": "0x1",
      "blockHash": "0x9c7fb6c2b7ca89d8392c7ceb03f501b1ccd7b21e0f4d6b62d6dab1ea3b3f047b",
      "blockNumber": "0x1fa0764",
      "gasUsed": "0x15f02d59",
      "effectiveGasPrice": "0x132b3a0",
      "from": "0x38c35a030ac45a511a7930dffd93fcdc2f67b6a8",
      "to": "0x665566b12f2e9e93d55f0f2ffdeae46553bd037d",
      "contractAddress": null,
      "l1Fee": "0x8a6ccf",
      "l1FeeScalar": "0.01",
      "l1GasPrice": "0x8e",
      "l1GasUsed": "0x7f0",
      "tokenRatio": "0xc48"
    },
    {
      "status": "0x1",
      "cumulativeGasUsed": "0x6eff885",
      "logs": [
        {
          "address": "0xcb456899a90bc65ba19b899316623c481e3ebdcb",
          "topics": [
            "0xddf252ad1be2c89b69c2b068fc378daa952ba7f163c4a11628f55a4df523b3ef",
            "0x0000000000000000000000000000000000000000000000000000000000000000",
            "0x0000000000000000000000001111111111111111111111111111111111111111"
          ],
          "data": "0x0000000000000000000000000000000000000000000000000000000ba43b7400",
          "blockHash": "0x934aeed7709a4a3e568a379eda0c166a63a5622e6c81881650ef291be9f4f65e",
          "blockNumber": "0x1fa0767",
          "blockTimestamp": "0x695f91af",
          "transactionHash": "0x2638c1bdd278de90675e75f23f86f872466f2b2a1ca47c4e24921e9b083723f3",
          "transactionIndex": "0x1",
          "logIndex": "0x0",
          "removed": false
        }
      ],
      "logsBloom": "0x00000000000000000000000000000000000000000000000000000000000000000000000000000000000000000000000000000000000000000000000000000000000000000000000000000008000000000000000000000000000000000000000000000000020000000000000000000800000000000000000000000010000200000000000000000000000000000000000000010000000000000000000000000000240000000000000000000000000000000000000000000000000000000400000020000002000000000000000000000000000000000000000000000000000020000000000000000000000000000000000000000000000000000000000000000000",
      "type": "0x2",
      "transactionHash": "0x2638c1bdd278de90675e75f23f86f872466f2b2a1ca47c4e24921e9b083723f3",
      "transactionIndex": "0x1",
      "blockHash": "0x934aeed7709a4a3e568a379eda0c166a63a5622e6c81881650ef291be9f4f65e",
      "blockNumber": "0x1fa0767",
      "gasUsed": "0x6ef4198",
      "effectiveGasPrice": "0x132b3a0",
      "from": "0x38c35a030ac45a511a7930dffd93fcdc2f67b6a8",
      "to": "0xcb456899a90bc65ba19b899316623c481e3ebdcb",
      "contractAddress": null,
      "l1Fee": "0xb16421",
      "l1FeeScalar": "0.01",
      "l1GasPrice": "0x8e",
      "l1GasUsed": "0xa2c",
      "tokenRatio": "0xc48"
    },
    {
      "status": "0x1",
      "cumulativeGasUsed": "0x8cc20ef",
      "logs": [
        {
          "address": "0xcb456899a90bc65ba19b899316623c481e3ebdcb",
          "topics": [
            "0x8c5be1e5ebec7d5bd14f71427d1e84f3dd0314c0f7b2291e5b200ac8c7c3b925",
            "0x00000000000000000000000038c35a030ac45a511a7930dffd93fcdc2f67b6a8",
            "0x000000000000000000000000f5dc8de141b22d054621c9c413a40b95ac0d226f"
          ],
          "data": "0x00000000000000000000000000000000000000000000000000000004a817c800",
          "blockHash": "0xe4024b3d36dd310c3871e881df1609772a23dd6c684cd56cfa499edc83082465",
          "blockNumber": "0x1fa0769",
          "blockTimestamp": "0x695f91b3",
          "transactionHash": "0xed037ac1b6427f7608a6e19988472a4a8c3ca60f0e7db7d462caa42c6ceccf7e",
          "transactionIndex": "0x1",
          "logIndex": "0x0",
          "removed": false
        }
      ],
      "logsBloom": "0x00000000000000000000000000000000000000000000000000000000000000000000000000000000000000000000000010000000000000000000000000200000000000000000000000000000000000000000000000000000000000000000000000000000000000000000000000000000000000000200000000000000000000000000000040000000000000000000000000010000000000000000000000000000020002000000000000000000000000000000000000000000000000000400400020000000000000000000000000000000000000000000000000000000000000000010008000000000000000000000000000000000000000000000000000000000",
      "type": "0x2",
      "transactionHash": "0xed037ac1b6427f7608a6e19988472a4a8c3ca60f0e7db7d462caa42c6ceccf7e",
      "transactionIndex": "0x1",
      "blockHash": "0xe4024b3d36dd310c3871e881df1609772a23dd6c684cd56cfa499edc83082465",
      "blockNumber": "0x1fa0769",
      "gasUsed": "0x8cb4932",
      "effectiveGasPrice": "0x132b3a0",
      "from": "0x38c35a030ac45a511a7930dffd93fcdc2f67b6a8",
      "to": "0xcb456899a90bc65ba19b899316623c481e3ebdcb",
      "contractAddress": null,
      "l1Fee": "0xaee486",
      "l1FeeScalar": "0.01",
      "l1GasPrice": "0x8c",
      "l1GasUsed": "0xa2c",
      "tokenRatio": "0xc48"
    },
    {
      "status": "0x1",
      "cumulativeGasUsed": "0x52f0bd2a",
      "logs": [
        {
          "address": "0xcb456899a90bc65ba19b899316623c481e3ebdcb",
          "topics": [
            "0xddf252ad1be2c89b69c2b068fc378daa952ba7f163c4a11628f55a4df523b3ef",
            "0x00000000000000000000000038c35a030ac45a511a7930dffd93fcdc2f67b6a8",
            "0x000000000000000000000000f5dc8de141b22d054621c9c413a40b95ac0d226f"
          ],
          "data": "0x00000000000000000000000000000000000000000000000000000004a817c800",
          "blockHash": "0x76c0fc70bfa1a6d0ebf611aad3435cb9f30a30572a2cee08ea63fde70888db6a",
          "blockNumber": "0x1fa076b",
          "blockTimestamp": "0x695f91b7",
          "transactionHash": "0x4bab756b2ce7bc1204ba02213a906df556996bb56404c9045a2bc63e2f4ed74a",
          "transactionIndex": "0x1",
          "logIndex": "0x0",
          "removed": false
        },
        {
          "address": "0xf5dc8de141b22d054621c9c413a40b95ac0d226f",
          "topics": [
            "0xddf252ad1be2c89b69c2b068fc378daa952ba7f163c4a11628f55a4df523b3ef",
            "0x0000000000000000000000000000000000000000000000000000000000000000",
            "0x00000000000000000000000038c35a030ac45a511a7930dffd93fcdc2f67b6a8"
          ],
          "data": "0x00000000000000000000000000000000000000000000000000000004a817c800",
          "blockHash": "0x76c0fc70bfa1a6d0ebf611aad3435cb9f30a30572a2cee08ea63fde70888db6a",
          "blockNumber": "0x1fa076b",
          "blockTimestamp": "0x695f91b7",
          "transactionHash": "0x4bab756b2ce7bc1204ba02213a906df556996bb56404c9045a2bc63e2f4ed74a",
          "transactionIndex": "0x1",
          "logIndex": "0x1",
          "removed": false
        },
        {
          "address": "0xcb456899a90bc65ba19b899316623c481e3ebdcb",
          "topics": [
            "0x8c5be1e5ebec7d5bd14f71427d1e84f3dd0314c0f7b2291e5b200ac8c7c3b925",
            "0x000000000000000000000000f5dc8de141b22d054621c9c413a40b95ac0d226f",
            "0x00000000000000000000000057bbcfa27123e352848a05645e3287c1058f09c0"
          ],
          "data": "0x00000000000000000000000000000000000000000000000000000004a817c800",
          "blockHash": "0x76c0fc70bfa1a6d0ebf611aad3435cb9f30a30572a2cee08ea63fde70888db6a",
          "blockNumber": "0x1fa076b",
          "blockTimestamp": "0x695f91b7",
          "transactionHash": "0x4bab756b2ce7bc1204ba02213a906df556996bb56404c9045a2bc63e2f4ed74a",
          "transactionIndex": "0x1",
          "logIndex": "0x2",
          "removed": false
        },
        {
          "address": "0xcb456899a90bc65ba19b899316623c481e3ebdcb",
          "topics": [
            "0xddf252ad1be2c89b69c2b068fc378daa952ba7f163c4a11628f55a4df523b3ef",
            "0x000000000000000000000000f5dc8de141b22d054621c9c413a40b95ac0d226f",
            "0x00000000000000000000000057bbcfa27123e352848a05645e3287c1058f09c0"
          ],
          "data": "0x00000000000000000000000000000000000000000000000000000004a817c800",
          "blockHash": "0x76c0fc70bfa1a6d0ebf611aad3435cb9f30a30572a2cee08ea63fde70888db6a",
          "blockNumber": "0x1fa076b",
          "blockTimestamp": "0x695f91b7",
          "transactionHash": "0x4bab756b2ce7bc1204ba02213a906df556996bb56404c9045a2bc63e2f4ed74a",
          "transactionIndex": "0x1",
          "logIndex": "0x3",
          "removed": false
        },
        {
          "address": "0x57bbcfa27123e352848a05645e3287c1058f09c0",
          "topics": [
            "0x2da466a7b24304f47e87fa2e1e5a81b9831ce54fec19055ce277ca2f39ba42c4",
            "0x000000000000000000000000f5dc8de141b22d054621c9c413a40b95ac0d226f"
          ],
          "data": "0x00000000000000000000000000000000000000000000000000000004a817c800",
          "blockHash": "0x76c0fc70bfa1a6d0ebf611aad3435cb9f30a30572a2cee08ea63fde70888db6a",
          "blockNumber": "0x1fa076b",
          "blockTimestamp": "0x695f91b7",
          "transactionHash": "0x4bab756b2ce7bc1204ba02213a906df556996bb56404c9045a2bc63e2f4ed74a",
          "transactionIndex": "0x1",
          "logIndex": "0x4",
          "removed": false
        },
        {
          "address": "0xcb456899a90bc65ba19b899316623c481e3ebdcb",
          "topics": [
            "0x8c5be1e5ebec7d5bd14f71427d1e84f3dd0314c0f7b2291e5b200ac8c7c3b925",
            "0x00000000000000000000000057bbcfa27123e352848a05645e3287c1058f09c0",
            "0x000000000000000000000000bf4aab99d5c8d1093dd74f31b8cc2b6065f4c723"
          ],
          "data": "0x00000000000000000000000000000000000000000000000000000001c4fecc00",
          "blockHash": "0x76c0fc70bfa1a6d0ebf611aad3435cb9f30a30572a2cee08ea63fde70888db6a",
          "blockNumber": "0x1fa076b",
          "blockTimestamp": "0x695f91b7",
          "transactionHash": "0x4bab756b2ce7bc1204ba02213a906df556996bb56404c9045a2bc63e2f4ed74a",
          "transactionIndex": "0x1",
          "logIndex": "0x5",
          "removed": false
        },
        {
          "address": "0xcb456899a90bc65ba19b899316623c481e3ebdcb",
          "topics": [
            "0xddf252ad1be2c89b69c2b068fc378daa952ba7f163c4a11628f55a4df523b3ef",
            "0x00000000000000000000000057bbcfa27123e352848a05645e3287c1058f09c0",
            "0x000000000000000000000000bf4aab99d5c8d1093dd74f31b8cc2b6065f4c723"
          ],
          "data": "0x00000000000000000000000000000000000000000000000000000001c4fecc00",
          "blockHash": "0x76c0fc70bfa1a6d0ebf611aad3435cb9f30a30572a2cee08ea63fde70888db6a",
          "blockNumber": "0x1fa076b",
          "blockTimestamp": "0x695f91b7",
          "transactionHash": "0x4bab756b2ce7bc1204ba02213a906df556996bb56404c9045a2bc63e2f4ed74a",
          "transactionIndex": "0x1",
          "logIndex": "0x6",
          "removed": false
        },
        {
          "address": "0xbf4aab99d5c8d1093dd74f31b8cc2b6065f4c723",
          "topics": [
            "0x2da466a7b24304f47e87fa2e1e5a81b9831ce54fec19055ce277ca2f39ba42c4",
            "0x00000000000000000000000057bbcfa27123e352848a05645e3287c1058f09c0"
          ],
          "data": "0x00000000000000000000000000000000000000000000000000000001c4fecc00",
          "blockHash": "0x76c0fc70bfa1a6d0ebf611aad3435cb9f30a30572a2cee08ea63fde70888db6a",
          "blockNumber": "0x1fa076b",
          "blockTimestamp": "0x695f91b7",
          "transactionHash": "0x4bab756b2ce7bc1204ba02213a906df556996bb56404c9045a2bc63e2f4ed74a",
          "transactionIndex": "0x1",
          "logIndex": "0x7",
          "removed": false
        },
        {
          "address": "0xcb456899a90bc65ba19b899316623c481e3ebdcb",
          "topics": [
            "0x8c5be1e5ebec7d5bd14f71427d1e84f3dd0314c0f7b2291e5b200ac8c7c3b925",
            "0x00000000000000000000000057bbcfa27123e352848a05645e3287c1058f09c0",
            "0x00000000000000000000000050ca65c6e8ce950b8bad775dd4ef04eccfb25261"
          ],
          "data": "0x000000000000000000000000000000000000000000000000000000018c5ef280",
          "blockHash": "0x76c0fc70bfa1a6d0ebf611aad3435cb9f30a30572a2cee08ea63fde70888db6a",
          "blockNumber": "0x1fa076b",
          "blockTimestamp": "0x695f91b7",
          "transactionHash": "0x4bab756b2ce7bc1204ba02213a906df556996bb56404c9045a2bc63e2f4ed74a",
          "transactionIndex": "0x1",
          "logIndex": "0x8",
          "removed": false
        },
        {
          "address": "0xcb456899a90bc65ba19b899316623c481e3ebdcb",
          "topics": [
            "0xddf252ad1be2c89b69c2b068fc378daa952ba7f163c4a11628f55a4df523b3ef",
            "0x00000000000000000000000057bbcfa27123e352848a05645e3287c1058f09c0",
            "0x00000000000000000000000050ca65c6e8ce950b8bad775dd4ef04eccfb25261"
          ],
          "data": "0x000000000000000000000000000000000000000000000000000000018c5ef280",
          "blockHash": "0x76c0fc70bfa1a6d0ebf611aad3435cb9f30a30572a2cee08ea63fde70888db6a",
          "blockNumber": "0x1fa076b",
          "blockTimestamp": "0x695f91b7",
          "transactionHash": "0x4bab756b2ce7bc1204ba02213a906df556996bb56404c9045a2bc63e2f4ed74a",
          "transactionIndex": "0x1",
          "logIndex": "0x9",
          "removed": false
        },
        {
          "address": "0x50ca65c6e8ce950b8bad775dd4ef04eccfb25261",
          "topics": [
            "0x2da466a7b24304f47e87fa2e1e5a81b9831ce54fec19055ce277ca2f39ba42c4",
            "0x00000000000000000000000057bbcfa27123e352848a05645e3287c1058f09c0"
          ],
          "data": "0x000000000000000000000000000000000000000000000000000000018c5ef280",
          "blockHash": "0x76c0fc70bfa1a6d0ebf611aad3435cb9f30a30572a2cee08ea63fde70888db6a",
          "blockNumber": "0x1fa076b",
          "blockTimestamp": "0x695f91b7",
          "transactionHash": "0x4bab756b2ce7bc1204ba02213a906df556996bb56404c9045a2bc63e2f4ed74a",
          "transactionIndex": "0x1",
          "logIndex": "0xa",
          "removed": false
        },
        {
          "address": "0xcb456899a90bc65ba19b899316623c481e3ebdcb",
          "topics": [
            "0x8c5be1e5ebec7d5bd14f71427d1e84f3dd0314c0f7b2291e5b200ac8c7c3b925",
            "0x00000000000000000000000057bbcfa27123e352848a05645e3287c1058f09c0",
            "0x000000000000000000000000a7b59ac867940de5afb63a7a885ec9bb8d8598de"
          ],
          "data": "0x00000000000000000000000000000000000000000000000000000000e27f6600",
          "blockHash": "0x76c0fc70bfa1a6d0ebf611aad3435cb9f30a30572a2cee08ea63fde70888db6a",
          "blockNumber": "0x1fa076b",
          "blockTimestamp": "0x695f91b7",
          "transactionHash": "0x4bab756b2ce7bc1204ba02213a906df556996bb56404c9045a2bc63e2f4ed74a",
          "transactionIndex": "0x1",
          "logIndex": "0xb",
          "removed": false
        },
        {
          "address": "0xcb456899a90bc65ba19b899316623c481e3ebdcb",
          "topics": [
            "0xddf252ad1be2c89b69c2b068fc378daa952ba7f163c4a11628f55a4df523b3ef",
            "0x00000000000000000000000057bbcfa27123e352848a05645e3287c1058f09c0",
            "0x000000000000000000000000a7b59ac867940de5afb63a7a885ec9bb8d8598de"
          ],
          "data": "0x00000000000000000000000000000000000000000000000000000000e27f6600",
          "blockHash": "0x76c0fc70bfa1a6d0ebf611aad3435cb9f30a30572a2cee08ea63fde70888db6a",
          "blockNumber": "0x1fa076b",
          "blockTimestamp": "0x695f91b7",
          "transactionHash": "0x4bab756b2ce7bc1204ba02213a906df556996bb56404c9045a2bc63e2f4ed74a",
          "transactionIndex": "0x1",
          "logIndex": "0xc",
          "removed": false
        },
        {
          "address": "0xa7b59ac867940de5afb63a7a885ec9bb8d8598de",
          "topics": [
            "0x2da466a7b24304f47e87fa2e1e5a81b9831ce54fec19055ce277ca2f39ba42c4",
            "0x00000000000000000000000057bbcfa27123e352848a05645e3287c1058f09c0"
          ],
          "data": "0x00000000000000000000000000000000000000000000000000000000e27f6600",
          "blockHash": "0x76c0fc70bfa1a6d0ebf611aad3435cb9f30a30572a2cee08ea63fde70888db6a",
          "blockNumber": "0x1fa076b",
          "blockTimestamp": "0x695f91b7",
          "transactionHash": "0x4bab756b2ce7bc1204ba02213a906df556996bb56404c9045a2bc63e2f4ed74a",
          "transactionIndex": "0x1",
          "logIndex": "0xd",
          "removed": false
        },
        {
          "address": "0xcb456899a90bc65ba19b899316623c481e3ebdcb",
          "topics": [
            "0xddf252ad1be2c89b69c2b068fc378daa952ba7f163c4a11628f55a4df523b3ef",
            "0x00000000000000000000000057bbcfa27123e352848a05645e3287c1058f09c0",
            "0x00000000000000000000000038c35a030ac45a511a7930dffd93fcdc2f67b6a8"
          ],
          "data": "0x00000000000000000000000000000000000000000000000000000000389fd980",
          "blockHash": "0x76c0fc70bfa1a6d0ebf611aad3435cb9f30a30572a2cee08ea63fde70888db6a",
          "blockNumber": "0x1fa076b",
          "blockTimestamp": "0x695f91b7",
          "transactionHash": "0x4bab756b2ce7bc1204ba02213a906df556996bb56404c9045a2bc63e2f4ed74a",
          "transactionIndex": "0x1",
          "logIndex": "0xe",
          "removed": false
        },
        {
          "address": "0x57bbcfa27123e352848a05645e3287c1058f09c0",
          "topics": [
            "0x6e8da5d005a81837a3348ed916b3068eb1b6a77c328ed76e4b38be7b56410f65"
          ],
          "data": "0x0000000000000000000000000000000000000000000000000000000ed1d5ec8000000000000000000000000000000000000000000000000000000001c4fecc00000000000000000000000000000000000000000000000000000000018c5ef28000000000000000000000000000000000000000000000000000000000e27f660000000000000000000000000000000000000000000000000000000000389fd980",
          "blockHash": "0x76c0fc70bfa1a6d0ebf611aad3435cb9f30a30572a2cee08ea63fde70888db6a",
          "blockNumber": "0x1fa076b",
          "blockTimestamp": "0x695f91b7",
          "transactionHash": "0x4bab756b2ce7bc1204ba02213a906df556996bb56404c9045a2bc63e2f4ed74a",
          "transactionIndex": "0x1",
          "logIndex": "0xf",
          "removed": false
        },
        {
          "address": "0x19600cb6458e903f2ad335592046bd786c214677",
          "topics": [
            "0x190285dbd6df76ea1df2b1def381749fcd848b357af704852f93e02a1b63163e",
            "0x000000000000000000000000f5dc8de141b22d054621c9c413a40b95ac0d226f"
          ],
          "data": "0x00000000000000000000000000000000000000000000000000000004a817c80000000000000000000000000000000000000000000000000000000000695f91b7",
          "blockHash": "0x76c0fc70bfa1a6d0ebf611aad3435cb9f30a30572a2cee08ea63fde70888db6a",
          "blockNumber": "0x1fa076b",
          "blockTimestamp": "0x695f91b7",
          "transactionHash": "0x4bab756b2ce7bc1204ba02213a906df556996bb56404c9045a2bc63e2f4ed74a",
          "transactionIndex": "0x1",
          "logIndex": "0x10",
          "removed": false
        },
        {
          "address": "0x665566b12f2e9e93d55f0f2ffdeae46553bd037d",
          "topics": [
            "0x098780f78fba60e0edc6f2e1ff456143f9803c5bf9f2cb202bd715d69b2e4e91",
            "0x00000000000000000000000038c35a030ac45a511a7930dffd93fcdc2f67b6a8"
          ],
          "data": "0x00000000000000000000000000000000000000000000000000000004a817c800",
          "blockHash": "0x76c0fc70bfa1a6d0ebf611aad3435cb9f30a30572a2cee08ea63fde70888db6a",
          "blockNumber": "0x1fa076b",
          "blockTimestamp": "0x695f91b7",
          "transactionHash": "0x4bab756b2ce7bc1204ba02213a906df556996bb56404c9045a2bc63e2f4ed74a",
          "transactionIndex": "0x1",
          "logIndex": "0x11",
          "removed": false
        },
        {
          "address": "0x210d2e01d0e3ec57dd0ecccce8ea6f893ff12c0c",
          "topics": [
            "0x3d80251ddaf5c4d60e9eb21420ea337ee2ed61874747e15f70d33ed395aa8032",
            "0x00000000000000000000000038c35a030ac45a511a7930dffd93fcdc2f67b6a8"
          ],
          "data": "0x000000000000000000000000000000000000000000000000000000004dfb19ce00000000000000000000000000000000000000000000000000000000695f91b7",
          "blockHash": "0x76c0fc70bfa1a6d0ebf611aad3435cb9f30a30572a2cee08ea63fde70888db6a",
          "blockNumber": "0x1fa076b",
          "blockTimestamp": "0x695f91b7",
          "transactionHash": "0x4bab756b2ce7bc1204ba02213a906df556996bb56404c9045a2bc63e2f4ed74a",
          "transactionIndex": "0x1",
          "logIndex": "0x12",
          "removed": false
        },
        {
          "address": "0x210d2e01d0e3ec57dd0ecccce8ea6f893ff12c0c",
          "topics": [
            "0xcc8abc0e17b4d0b04ed7519133333d8b528711dfcabbbd2eb747d9fcaef4ab55",
            "0x00000000000000000000000038c35a030ac45a511a7930dffd93fcdc2f67b6a8"
          ],
          "data": "0x00000000000000000000000000000000000000000000000000000004a817c80000000000000000000000000000000000000000000000000000000000695f91b7",
          "blockHash": "0x76c0fc70bfa1a6d0ebf611aad3435cb9f30a30572a2cee08ea63fde70888db6a",
          "blockNumber": "0x1fa076b",
          "blockTimestamp": "0x695f91b7",
          "transactionHash": "0x4bab756b2ce7bc1204ba02213a906df556996bb56404c9045a2bc63e2f4ed74a",
          "transactionIndex": "0x1",
          "logIndex": "0x13",
          "removed": false
        },
        {
          "address": "0x19600cb6458e903f2ad335592046bd786c214677",
          "topics": [
            "0x27c04b7e57b539cc7ccdbf9569797a18490d4ec2ddab65d443cdc540efed8acb",
            "0x00000000000000000000000038c35a030ac45a511a7930dffd93fcdc2f67b6a8"
          ],
          "data": "0x00000000000000000000000000000000000000000000000000000004a817c80000000000000000000000000000000000000000000000000000000004a817c800",
          "blockHash": "0x76c0fc70bfa1a6d0ebf611aad3435cb9f30a30572a2cee08ea63fde70888db6a",
          "blockNumber": "0x1fa076b",
          "blockTimestamp": "0x695f91b7",
          "transactionHash": "0x4bab756b2ce7bc1204ba02213a906df556996bb56404c9045a2bc63e2f4ed74a",
          "transactionIndex": "0x1",
          "logIndex": "0x14",
          "removed": false
        },
        {
          "address": "0xf5dc8de141b22d054621c9c413a40b95ac0d226f",
          "topics": [
            "0x90890809c654f11d6e72a28fa60149770a0d11ec6c92319d6ceb2bb0a4ea1a15",
            "0x00000000000000000000000038c35a030ac45a511a7930dffd93fcdc2f67b6a8",
            "0x0000000000000000000000000000000000000000000000000000000000000003"
          ],
          "data": "0x00000000000000000000000000000000000000000000000000000004a817c800",
          "blockHash": "0x76c0fc70bfa1a6d0ebf611aad3435cb9f30a30572a2cee08ea63fde70888db6a",
          "blockNumber": "0x1fa076b",
          "blockTimestamp": "0x695f91b7",
          "transactionHash": "0x4bab756b2ce7bc1204ba02213a906df556996bb56404c9045a2bc63e2f4ed74a",
          "transactionIndex": "0x1",
          "logIndex": "0x15",
          "removed": false
        }
      ],
      "logsBloom": "0x00008000000000800000000000000000000000000400000000080000010000010000000000040000000000000000000018000000020000000000200001200000000000000000008000000808040000000000001000000000000100048000600000001020020000000000000008000800000010000200000000000010000202004000040044000101080000200000000000010002000080080000000000000040020082008008400000140000000800000000000000800000000000000400400420000202000000010000000000000001000400000000000000000000000020020050018010000000000200000000000000800000500400000000300200000000",
      "type": "0x2",
      "transactionHash": "0x4bab756b2ce7bc1204ba02213a906df556996bb56404c9045a2bc63e2f4ed74a",
      "transactionIndex": "0x1",
      "blockHash": "0x76c0fc70bfa1a6d0ebf611aad3435cb9f30a30572a2cee08ea63fde70888db6a",
      "blockNumber": "0x1fa076b",
      "gasUsed": "0x52f00631",
      "effectiveGasPrice": "0x132b3a0",
      "from": "0x38c35a030ac45a511a7930dffd93fcdc2f67b6a8",
      "to": "0xf5dc8de141b22d054621c9c413a40b95ac0d226f",
      "contractAddress": null,
      "l1Fee": "0x951a20",
      "l1FeeScalar": "0.01",
      "l1GasPrice": "0x8c",
      "l1GasUsed": "0x8ac",
      "tokenRatio": "0xc48"
    },
    {
      "status": "0x1",
      "cumulativeGasUsed": "0x6bcb879",
      "logs": [
        {
          "address": "0x665566b12f2e9e93d55f0f2ffdeae46553bd037d",
          "topics": [
            "0xa248d81b377afe8736fe397f5a9f8f0d7c581e67ff6ae4037df29a672a92133b"
          ],
          "data": "0x0000000000000000000000000000000000000000000000000000002e90edd00000000000000000000000000000000000000000000000000000000000695f91bb",
          "blockHash": "0x6f20306258ae781a44392eb09a86cbab39e052dad388c3a0af5154fde62f20c8",
          "blockNumber": "0x1fa076d",
          "blockTimestamp": "0x695f91bb",
          "transactionHash": "0x5e0ded29fd5be2ca1b8f1cc01c302191a4a0d0b5647c838f66ef9f0abc4d75f0",
          "transactionIndex": "0x1",
          "logIndex": "0x0",
          "removed": false
        }
      ],
      "logsBloom": "0x00000000000000000000000000000000000000000000000000000000000000000000000000000000000000000000000000000000000000000000000000000000000000000000000000000000000000000000000000000000000000008000000000000000000000000000000000000000000000000000000000000200020000000000000000000000000000000000000000000000000000000000000000000000000000000000000000000000002000000000000000000000000000000000000000000000000000000000000000000000000000000000000000000000000000000000000000000000000200000000000000000000000000000000100000000000",
      "type": "0x2",
      "transactionHash": "0x5e0ded29fd5be2ca1b8f1cc01c302191a4a0d0b5647c838f66ef9f0abc4d75f0",
      "transactionIndex": "0x1",
      "blockHash": "0x6f20306258ae781a44392eb09a86cbab39e052dad388c3a0af5154fde62f20c8",
      "blockNumber": "0x1fa076d",
      "gasUsed": "0x6bc0180",
      "effectiveGasPrice": "0x132b3a0",
      "from": "0x38c35a030ac45a511a7930dffd93fcdc2f67b6a8",
      "to": "0x665566b12f2e9e93d55f0f2ffdeae46553bd037d",
      "contractAddress": null,
      "l1Fee": "0x940706",
      "l1FeeScalar": "0.01",
      "l1GasPrice": "0x8c",
      "l1GasUsed": "0x89c",
      "tokenRatio": "0xc48"
    },
    {
      "status": "0x1",
      "cumulativeGasUsed": "0x8e82881",
      "logs": [
        {
          "address": "0x665566b12f2e9e93d55f0f2ffdeae46553bd037d",
          "topics": [
            "0xb45cd64a5416a536ca725507231d1c5910ba1ea2e12d16eb24db17764ea4deae"
          ],
          "data": "0x000000000000000000000000000000000000000000000000000000174876e800",
          "blockHash": "0x5d5c85b4e7e6169bb5b63e8da05cb2a8e38c0aee9e36f5a0f74572c01295588f",
          "blockNumber": "0x1fa076f",
          "blockTimestamp": "0x695f91bf",
          "transactionHash": "0xc7d4116ede7b27cd984402c00d34a22a89039822aad1bf0d0ff032c49c05e00d",
          "transactionIndex": "0x1",
          "logIndex": "0x0",
          "removed": false
        }
      ],
      "logsBloom": "0x00000000000000000000000000000000000000000000000000000000000000000000000000000000000000000000000000000000000000000000000000000000000000000000000000000000000000000000000000000000000000008000000000000000000000000100000000000000000000000000000000000000000000000000000000000000000020000000000000000000000000000000000000000000000000000000000000000000000000000000000004000000000000000000000000000000000000000000000000000000000000000000000000000000000000000000000000000000000200000000000000000000000000000000100000000000",
      "type": "0x2",
      "transactionHash": "0xc7d4116ede7b27cd984402c00d34a22a89039822aad1bf0d0ff032c49c05e00d",
      "transactionIndex": "0x1",
      "blockHash": "0x5d5c85b4e7e6169bb5b63e8da05cb2a8e38c0aee9e36f5a0f74572c01295588f",
      "blockNumber": "0x1fa076f",
      "gasUsed": "0x8e750c4",
      "effectiveGasPrice": "0x132b3a0",
      "from": "0x38c35a030ac45a511a7930dffd93fcdc2f67b6a8",
      "to": "0x665566b12f2e9e93d55f0f2ffdeae46553bd037d",
      "contractAddress": null,
      "l1Fee": "0x8da59e",
      "l1FeeScalar": "0.01",
      "l1GasPrice": "0x85",
      "l1GasUsed": "0x8ac",
      "tokenRatio": "0xc48"
    },
    {
      "status": "0x1",
      "cumulativeGasUsed": "0x15f0e452",
      "logs": [
        {
          "address": "0x665566b12f2e9e93d55f0f2ffdeae46553bd037d",
          "topics": [
            "0x379107d1f9081909982aadf58c4807ad21cd02ab71b5c30f66fcd6f92138ea24"
          ],
          "data": "0x000000000000000000000000000000000000000000000000000000174876e80000000000000000000000000000000000000000000000000000000000695f91c3",
          "blockHash": "0x690feb375a7b06bfaa98b58ecce60e38af8d4e852b74122f50feedd47ea2096c",
          "blockNumber": "0x1fa0771",
          "blockTimestamp": "0x695f91c3",
          "transactionHash": "0xbe310d13172ac7c9cc471da9a63612326e108550f2225908f89b7f8aaa518b1e",
          "transactionIndex": "0x1",
          "logIndex": "0x0",
          "removed": false
        }
      ],
      "logsBloom": "0x00000000000000000000000000000000000000000000000000000000000000000000000000000000000000000000000000000000000000000000000000000002000000000000000000000000000000000000000000000000000000008000000000000000000000000000000000004000000080000000000000000000000000000000000000000000000000000000000000000000000000000000000000000000000000000000000000000000000000000000000000000000000000000000000000000000000000000000000000000000000000000000000000000000000000000000000000000000000200000000000000000000000000000000100000000000",
      "type": "0x2",
      "transactionHash": "0xbe310d13172ac7c9cc471da9a63612326e108550f2225908f89b7f8aaa518b1e",
      "transactionIndex": "0x1",
      "blockHash": "0x690feb375a7b06bfaa98b58ecce60e38af8d4e852b74122f50feedd47ea2096c",
      "blockNumber": "0x1fa0771",
      "gasUsed": "0x15f02d59",
      "effectiveGasPrice": "0x132b3a0",
      "from": "0x38c35a030ac45a511a7930dffd93fcdc2f67b6a8",
      "to": "0x665566b12f2e9e93d55f0f2ffdeae46553bd037d",
      "contractAddress": null,
      "l1Fee": "0x826ad2",
      "l1FeeScalar": "0.01",
      "l1GasPrice": "0x85",
      "l1GasUsed": "0x7fc",
      "tokenRatio": "0xc48"
    },
    {
      "status": "0x1",
      "cumulativeGasUsed": "0x8e807bd",
      "logs": [
        {
          "address": "0x665566b12f2e9e93d55f0f2ffdeae46553bd037d",
          "topics": [
            "0xb45cd64a5416a536ca725507231d1c5910ba1ea2e12d16eb24db17764ea4deae"
          ],
          "data": "0x000000000000000000000000000000000000000000000000000000174876e800",
          "blockHash": "0xf20a54feb6050c65f060bf13805e06bf0e34a54284e5c007314b1d0b98bf7a4b",
          "blockNumber": "0x1fa0773",
          "blockTimestamp": "0x695f91c7",
          "transactionHash": "0xda4e1dbe58f353a79e16ea246733fee0fe0dbf0b3ffaeedd2e5deada1888b3c2",
          "transactionIndex": "0x1",
          "logIndex": "0x0",
          "removed": false
        }
      ],
      "logsBloom": "0x00000000000000000000000000000000000000000000000000000000000000000000000000000000000000000000000000000000000000000000000000000000000000000000000000000000000000000000000000000000000000008000000000000000000000000100000000000000000000000000000000000000000000000000000000000000000020000000000000000000000000000000000000000000000000000000000000000000000000000000000004000000000000000000000000000000000000000000000000000000000000000000000000000000000000000000000000000000000200000000000000000000000000000000100000000000",
      "type": "0x2",
      "transactionHash": "0xda4e1dbe58f353a79e16ea246733fee0fe0dbf0b3ffaeedd2e5deada1888b3c2",
      "transactionIndex": "0x1",
      "blockHash": "0xf20a54feb6050c65f060bf13805e06bf0e34a54284e5c007314b1d0b98bf7a4b",
      "blockNumber": "0x1fa0773",
      "gasUsed": "0x8e750c4",
      "effectiveGasPrice": "0x132b3a0",
      "from": "0x38c35a030ac45a511a7930dffd93fcdc2f67b6a8",
      "to": "0x665566b12f2e9e93d55f0f2ffdeae46553bd037d",
      "contractAddress": null,
      "l1Fee": "0x8da59e",
      "l1FeeScalar": "0.01",
      "l1GasPrice": "0x85",
      "l1GasUsed": "0x8ac",
      "tokenRatio": "0xc48"
    },
    {
      "status": "0x1",
      "cumulativeGasUsed": "0x15858afe",
      "logs": [
        {
          "address": "0x665566b12f2e9e93d55f0f2ffdeae46553bd037d",
          "topics": [
            "0x379107d1f9081909982aadf58c4807ad21cd02ab71b5c30f66fcd6f92138ea24"
          ],
          "data": "0x000000000000000000000000000000000000000000000000000000174876e80000000000000000000000000000000000000000000000000000000000695f91cb",
          "blockHash": "0x167ad49e47fd27a71acf263de95dbd8315ffd2b4ebe08b4680b4a2434f617501",
          "blockNumber": "0x1fa0775",
          "blockTimestamp": "0x695f91cb",
          "transactionHash": "0x86de7cfc5b91d5f45c5a7f6eb8f17de69f728aa60852c668181554bd7349ca7f",
          "transactionIndex": "0x1",
          "logIndex": "0x0",
          "removed": false
        }
      ],
      "logsBloom": "0x00000000000000000000000000000000000000000000000000000000000000000000000000000000000000000000000000000000000000000000000000000002000000000000000000000000000000000000000000000000000000008000000000000000000000000000000000004000000080000000000000000000000000000000000000000000000000000000000000000000000000000000000000000000000000000000000000000000000000000000000000000000000000000000000000000000000000000000000000000000000000000000000000000000000000000000000000000000000200000000000000000000000000000000100000000000",
      "type": "0x2",
      "transactionHash": "0x86de7cfc5b91d5f45c5a7f6eb8f17de69f728aa60852c668181554bd7349ca7f",
      "transactionIndex": "0x1",
      "blockHash": "0x167ad49e47fd27a71acf263de95dbd8315ffd2b4ebe08b4680b4a2434f617501",
      "blockNumber": "0x1fa0775",
      "gasUsed": "0x1584b341",
      "effectiveGasPrice": "0x132b3a0",
      "from": "0x38c35a030ac45a511a7930dffd93fcdc2f67b6a8",
      "to": "0x665566b12f2e9e93d55f0f2ffdeae46553bd037d",
      "contractAddress": null,
      "l1Fee": "0x7eba26",
      "l1FeeScalar": "0.01",
      "l1GasPrice": "0x82",
      "l1GasUsed": "0x7f0",
      "tokenRatio": "0xc48"
    },
    {
      "status": "0x1",
      "cumulativeGasUsed": "0x8e807bd",
      "logs": [
        {
          "address": "0x665566b12f2e9e93d55f0f2ffdeae46553bd037d",
          "topics": [
            "0xb45cd64a5416a536ca725507231d1c5910ba1ea2e12d16eb24db17764ea4deae"
          ],
          "data": "0x000000000000000000000000000000000000000000000000000000174876e800",
          "blockHash": "0xd6c679f6560fedb21090d8778baacc2312f401595fb04e83f9f823f5d78875c6",
          "blockNumber": "0x1fa0777",
          "blockTimestamp": "0x695f91cf",
          "transactionHash": "0x5b23f879577d288be5bfd5086bc0e52a12a556e2e122d57a5ebc36d265c23f8f",
          "transactionIndex": "0x1",
          "logIndex": "0x0",
          "removed": false
        }
      ],
      "logsBloom": "0x00000000000000000000000000000000000000000000000000000000000000000000000000000000000000000000000000000000000000000000000000000000000000000000000000000000000000000000000000000000000000008000000000000000000000000100000000000000000000000000000000000000000000000000000000000000000020000000000000000000000000000000000000000000000000000000000000000000000000000000000004000000000000000000000000000000000000000000000000000000000000000000000000000000000000000000000000000000000200000000000000000000000000000000100000000000",
      "type": "0x2",
      "transactionHash": "0x5b23f879577d288be5bfd5086bc0e52a12a556e2e122d57a5ebc36d265c23f8f",
      "transactionIndex": "0x1",
      "blockHash": "0xd6c679f6560fedb21090d8778baacc2312f401595fb04e83f9f823f5d78875c6",
      "blockNumber": "0x1fa0777",
      "gasUsed": "0x8e750c4",
      "effectiveGasPrice": "0x132b3a0",
      "from": "0x38c35a030ac45a511a7930dffd93fcdc2f67b6a8",
      "to": "0x665566b12f2e9e93d55f0f2ffdeae46553bd037d",
      "contractAddress": null,
      "l1Fee": "0x8a73b0",
      "l1FeeScalar": "0.01",
      "l1GasPrice": "0x82",
      "l1GasUsed": "0x8ac",
      "tokenRatio": "0xc48"
    },
    {
      "status": "0x1",
      "cumulativeGasUsed": "0x15856a3a",
      "logs": [
        {
          "address": "0x665566b12f2e9e93d55f0f2ffdeae46553bd037d",
          "topics": [
            "0x379107d1f9081909982aadf58c4807ad21cd02ab71b5c30f66fcd6f92138ea24"
          ],
          "data": "0x000000000000000000000000000000000000000000000000000000174876e80000000000000000000000000000000000000000000000000000000000695f91d3",
          "blockHash": "0x16639afe63ad047b0dfcf0fa6cf55851d240e896ea223ab27c42ac4d16b8af90",
          "blockNumber": "0x1fa0779",
          "blockTimestamp": "0x695f91d3",
          "transactionHash": "0xe6060f46d3b82da6f2b66e45e79cb59a903a99ed8d9e6154324ad8fcfff66a45",
          "transactionIndex": "0x1",
          "logIndex": "0x0",
          "removed": false
        }
      ],
      "logsBloom": "0x00000000000000000000000000000000000000000000000000000000000000000000000000000000000000000000000000000000000000000000000000000002000000000000000000000000000000000000000000000000000000008000000000000000000000000000000000004000000080000000000000000000000000000000000000000000000000000000000000000000000000000000000000000000000000000000000000000000000000000000000000000000000000000000000000000000000000000000000000000000000000000000000000000000000000000000000000000000000200000000000000000000000000000000100000000000",
      "type": "0x2",
      "transactionHash": "0xe6060f46d3b82da6f2b66e45e79cb59a903a99ed8d9e6154324ad8fcfff66a45",
      "transactionIndex": "0x1",
      "blockHash": "0x16639afe63ad047b0dfcf0fa6cf55851d240e896ea223ab27c42ac4d16b8af90",
      "blockNumber": "0x1fa0779",
      "gasUsed": "0x1584b341",
      "effectiveGasPrice": "0x132b3a0",
      "from": "0x38c35a030ac45a511a7930dffd93fcdc2f67b6a8",
      "to": "0x665566b12f2e9e93d55f0f2ffdeae46553bd037d",
      "contractAddress": null,
      "l1Fee": "0x7f79bc",
      "l1FeeScalar": "0.01",
      "l1GasPrice": "0x82",
      "l1GasUsed": "0x7fc",
      "tokenRatio": "0xc48"
    },
    {
      "status": "0x1",
      "cumulativeGasUsed": "0x8cc20ef",
      "logs": [
        {
          "address": "0xcb456899a90bc65ba19b899316623c481e3ebdcb",
          "topics": [
            "0x8c5be1e5ebec7d5bd14f71427d1e84f3dd0314c0f7b2291e5b200ac8c7c3b925",
            "0x00000000000000000000000038c35a030ac45a511a7930dffd93fcdc2f67b6a8",
            "0x000000000000000000000000f5dc8de141b22d054621c9c413a40b95ac0d226f"
          ],
          "data": "0x000000000000000000000000000000000000000000000000000000037e11d600",
          "blockHash": "0x4fc156669b502be1260f9eb59dcfbb8a0995228d5f921fbd27218573ed183b8e",
          "blockNumber": "0x1fa077b",
          "blockTimestamp": "0x695f91d7",
          "transactionHash": "0xb808e92819e1b052637ddc14c0fdac075bb4dab502fab2b71b25be2d5adc817e",
          "transactionIndex": "0x1",
          "logIndex": "0x0",
          "removed": false
        }
      ],
      "logsBloom": "0x00000000000000000000000000000000000000000000000000000000000000000000000000000000000000000000000010000000000000000000000000200000000000000000000000000000000000000000000000000000000000000000000000000000000000000000000000000000000000000200000000000000000000000000000040000000000000000000000000010000000000000000000000000000020002000000000000000000000000000000000000000000000000000400400020000000000000000000000000000000000000000000000000000000000000000010008000000000000000000000000000000000000000000000000000000000",
      "type": "0x2",
      "transactionHash": "0xb808e92819e1b052637ddc14c0fdac075bb4dab502fab2b71b25be2d5adc817e",
      "transactionIndex": "0x1",
      "blockHash": "0x4fc156669b502be1260f9eb59dcfbb8a0995228d5f921fbd27218573ed183b8e",
      "blockNumber": "0x1fa077b",
      "gasUsed": "0x8cb4932",
      "effectiveGasPrice": "0x132b3a0",
      "from": "0x38c35a030ac45a511a7930dffd93fcdc2f67b6a8",
      "to": "0xcb456899a90bc65ba19b899316623c481e3ebdcb",
      "contractAddress": null,
      "l1Fee": "0x9a998e",
      "l1FeeScalar": "0.01",
      "l1GasPrice": "0x7b",
      "l1GasUsed": "0xa3c",
      "tokenRatio": "0xc48"
    },
    {
      "status": "0x1",
      "cumulativeGasUsed": "0x52f0bd2a",
      "logs": [
        {
          "address": "0xcb456899a90bc65ba19b899316623c481e3ebdcb",
          "topics": [
            "0xddf252ad1be2c89b69c2b068fc378daa952ba7f163c4a11628f55a4df523b3ef",
            "0x00000000000000000000000038c35a030ac45a511a7930dffd93fcdc2f67b6a8",
            "0x000000000000000000000000f5dc8de141b22d054621c9c413a40b95ac0d226f"
          ],
          "data": "0x000000000000000000000000000000000000000000000000000000037e11d600",
          "blockHash": "0x1e7147e88e9826b5766b7a837619143a46b9cb08eedb326a7c54a60f66ce209e",
          "blockNumber": "0x1fa077d",
          "blockTimestamp": "0x695f91db",
          "transactionHash": "0x5c9d80820c8006fed67e7ce739981506a68a6c7d69a4b377f751e5aa908786ae",
          "transactionIndex": "0x1",
          "logIndex": "0x0",
          "removed": false
        },
        {
          "address": "0xf5dc8de141b22d054621c9c413a40b95ac0d226f",
          "topics": [
            "0xddf252ad1be2c89b69c2b068fc378daa952ba7f163c4a11628f55a4df523b3ef",
            "0x0000000000000000000000000000000000000000000000000000000000000000",
            "0x00000000000000000000000038c35a030ac45a511a7930dffd93fcdc2f67b6a8"
          ],
          "data": "0x000000000000000000000000000000000000000000000000000000037e11d600",
          "blockHash": "0x1e7147e88e9826b5766b7a837619143a46b9cb08eedb326a7c54a60f66ce209e",
          "blockNumber": "0x1fa077d",
          "blockTimestamp": "0x695f91db",
          "transactionHash": "0x5c9d80820c8006fed67e7ce739981506a68a6c7d69a4b377f751e5aa908786ae",
          "transactionIndex": "0x1",
          "logIndex": "0x1",
          "removed": false
        },
        {
          "address": "0xcb456899a90bc65ba19b899316623c481e3ebdcb",
          "topics": [
            "0x8c5be1e5ebec7d5bd14f71427d1e84f3dd0314c0f7b2291e5b200ac8c7c3b925",
            "0x000000000000000000000000f5dc8de141b22d054621c9c413a40b95ac0d226f",
            "0x00000000000000000000000057bbcfa27123e352848a05645e3287c1058f09c0"
          ],
          "data": "0x000000000000000000000000000000000000000000000000000000037e11d600",
          "blockHash": "0x1e7147e88e9826b5766b7a837619143a46b9cb08eedb326a7c54a60f66ce209e",
          "blockNumber": "0x1fa077d",
          "blockTimestamp": "0x695f91db",
          "transactionHash": "0x5c9d80820c8006fed67e7ce739981506a68a6c7d69a4b377f751e5aa908786ae",
          "transactionIndex": "0x1",
          "logIndex": "0x2",
          "removed": false
        },
        {
          "address": "0xcb456899a90bc65ba19b899316623c481e3ebdcb",
          "topics": [
            "0xddf252ad1be2c89b69c2b068fc378daa952ba7f163c4a11628f55a4df523b3ef",
            "0x000000000000000000000000f5dc8de141b22d054621c9c413a40b95ac0d226f",
            "0x00000000000000000000000057bbcfa27123e352848a05645e3287c1058f09c0"
          ],
          "data": "0x000000000000000000000000000000000000000000000000000000037e11d600",
          "blockHash": "0x1e7147e88e9826b5766b7a837619143a46b9cb08eedb326a7c54a60f66ce209e",
          "blockNumber": "0x1fa077d",
          "blockTimestamp": "0x695f91db",
          "transactionHash": "0x5c9d80820c8006fed67e7ce739981506a68a6c7d69a4b377f751e5aa908786ae",
          "transactionIndex": "0x1",
          "logIndex": "0x3",
          "removed": false
        },
        {
          "address": "0x57bbcfa27123e352848a05645e3287c1058f09c0",
          "topics": [
            "0x2da466a7b24304f47e87fa2e1e5a81b9831ce54fec19055ce277ca2f39ba42c4",
            "0x000000000000000000000000f5dc8de141b22d054621c9c413a40b95ac0d226f"
          ],
          "data": "0x000000000000000000000000000000000000000000000000000000037e11d600",
          "blockHash": "0x1e7147e88e9826b5766b7a837619143a46b9cb08eedb326a7c54a60f66ce209e",
          "blockNumber": "0x1fa077d",
          "blockTimestamp": "0x695f91db",
          "transactionHash": "0x5c9d80820c8006fed67e7ce739981506a68a6c7d69a4b377f751e5aa908786ae",
          "transactionIndex": "0x1",
          "logIndex": "0x4",
          "removed": false
        },
        {
          "address": "0xcb456899a90bc65ba19b899316623c481e3ebdcb",
          "topics": [
            "0x8c5be1e5ebec7d5bd14f71427d1e84f3dd0314c0f7b2291e5b200ac8c7c3b925",
            "0x00000000000000000000000057bbcfa27123e352848a05645e3287c1058f09c0",
            "0x000000000000000000000000bf4aab99d5c8d1093dd74f31b8cc2b6065f4c723"
          ],
          "data": "0x0000000000000000000000000000000000000000000000000000000153bf1900",
          "blockHash": "0x1e7147e88e9826b5766b7a837619143a46b9cb08eedb326a7c54a60f66ce209e",
          "blockNumber": "0x1fa077d",
          "blockTimestamp": "0x695f91db",
          "transactionHash": "0x5c9d80820c8006fed67e7ce739981506a68a6c7d69a4b377f751e5aa908786ae",
          "transactionIndex": "0x1",
          "logIndex": "0x5",
          "removed": false
        },
        {
          "address": "0xcb456899a90bc65ba19b899316623c481e3ebdcb",
          "topics": [
            "0xddf252ad1be2c89b69c2b068fc378daa952ba7f163c4a11628f55a4df523b3ef",
            "0x00000000000000000000000057bbcfa27123e352848a05645e3287c1058f09c0",
            "0x000000000000000000000000bf4aab99d5c8d1093dd74f31b8cc2b6065f4c723"
          ],
          "data": "0x0000000000000000000000000000000000000000000000000000000153bf1900",
          "blockHash": "0x1e7147e88e9826b5766b7a837619143a46b9cb08eedb326a7c54a60f66ce209e",
          "blockNumber": "0x1fa077d",
          "blockTimestamp": "0x695f91db",
          "transactionHash": "0x5c9d80820c8006fed67e7ce739981506a68a6c7d69a4b377f751e5aa908786ae",
          "transactionIndex": "0x1",
          "logIndex": "0x6",
          "removed": false
        },
        {
          "address": "0xbf4aab99d5c8d1093dd74f31b8cc2b6065f4c723",
          "topics": [
            "0x2da466a7b24304f47e87fa2e1e5a81b9831ce54fec19055ce277ca2f39ba42c4",
            "0x00000000000000000000000057bbcfa27123e352848a05645e3287c1058f09c0"
          ],
          "data": "0x0000000000000000000000000000000000000000000000000000000153bf1900",
          "blockHash": "0x1e7147e88e9826b5766b7a837619143a46b9cb08eedb326a7c54a60f66ce209e",
          "blockNumber": "0x1fa077d",
          "blockTimestamp": "0x695f91db",
          "transactionHash": "0x5c9d80820c8006fed67e7ce739981506a68a6c7d69a4b377f751e5aa908786ae",
          "transactionIndex": "0x1",
          "logIndex": "0x7",
          "removed": false
        },
        {
          "address": "0xcb456899a90bc65ba19b899316623c481e3ebdcb",
          "topics": [
            "0x8c5be1e5ebec7d5bd14f71427d1e84f3dd0314c0f7b2291e5b200ac8c7c3b925",
            "0x00000000000000000000000057bbcfa27123e352848a05645e3287c1058f09c0",
            "0x00000000000000000000000050ca65c6e8ce950b8bad775dd4ef04eccfb25261"
          ],
          "data": "0x00000000000000000000000000000000000000000000000000000001294735e0",
          "blockHash": "0x1e7147e88e9826b5766b7a837619143a46b9cb08eedb326a7c54a60f66ce209e",
          "blockNumber": "0x1fa077d",
          "blockTimestamp": "0x695f91db",
          "transactionHash": "0x5c9d80820c8006fed67e7ce739981506a68a6c7d69a4b377f751e5aa908786ae",
          "transactionIndex": "0x1",
          "logIndex": "0x8",
          "removed": false
        },
        {
          "address": "0xcb456899a90bc65ba19b899316623c481e3ebdcb",
          "topics": [
            "0xddf252ad1be2c89b69c2b068fc378daa952ba7f163c4a11628f55a4df523b3ef",
            "0x00000000000000000000000057bbcfa27123e352848a05645e3287c1058f09c0",
            "0x00000000000000000000000050ca65c6e8ce950b8bad775dd4ef04eccfb25261"
          ],
          "data": "0x00000000000000000000000000000000000000000000000000000001294735e0",
          "blockHash": "0x1e7147e88e9826b5766b7a837619143a46b9cb08eedb326a7c54a60f66ce209e",
          "blockNumber": "0x1fa077d",
          "blockTimestamp": "0x695f91db",
          "transactionHash": "0x5c9d80820c8006fed67e7ce739981506a68a6c7d69a4b377f751e5aa908786ae",
          "transactionIndex": "0x1",
          "logIndex": "0x9",
          "removed": false
        },
        {
          "address": "0x50ca65c6e8ce950b8bad775dd4ef04eccfb25261",
          "topics": [
            "0x2da466a7b24304f47e87fa2e1e5a81b9831ce54fec19055ce277ca2f39ba42c4",
            "0x00000000000000000000000057bbcfa27123e352848a05645e3287c1058f09c0"
          ],
          "data": "0x00000000000000000000000000000000000000000000000000000001294735e0",
          "blockHash": "0x1e7147e88e9826b5766b7a837619143a46b9cb08eedb326a7c54a60f66ce209e",
          "blockNumber": "0x1fa077d",
          "blockTimestamp": "0x695f91db",
          "transactionHash": "0x5c9d80820c8006fed67e7ce739981506a68a6c7d69a4b377f751e5aa908786ae",
          "transactionIndex": "0x1",
          "logIndex": "0xa",
          "removed": false
        },
        {
          "address": "0xcb456899a90bc65ba19b899316623c481e3ebdcb",
          "topics": [
            "0x8c5be1e5ebec7d5bd14f71427d1e84f3dd0314c0f7b2291e5b200ac8c7c3b925",
            "0x00000000000000000000000057bbcfa27123e352848a05645e3287c1058f09c0",
            "0x000000000000000000000000a7b59ac867940de5afb63a7a885ec9bb8d8598de"
          ],
          "data": "0x00000000000000000000000000000000000000000000000000000000a9df8c80",
          "blockHash": "0x1e7147e88e9826b5766b7a837619143a46b9cb08eedb326a7c54a60f66ce209e",
          "blockNumber": "0x1fa077d",
          "blockTimestamp": "0x695f91db",
          "transactionHash": "0x5c9d80820c8006fed67e7ce739981506a68a6c7d69a4b377f751e5aa908786ae",
          "transactionIndex": "0x1",
          "logIndex": "0xb",
          "removed": false
        },
        {
          "address": "0xcb456899a90bc65ba19b899316623c481e3ebdcb",
          "topics": [
            "0xddf252ad1be2c89b69c2b068fc378daa952ba7f163c4a11628f55a4df523b3ef",
            "0x00000000000000000000000057bbcfa27123e352848a05645e3287c1058f09c0",
            "0x000000000000000000000000a7b59ac867940de5afb63a7a885ec9bb8d8598de"
          ],
          "data": "0x00000000000000000000000000000000000000000000000000000000a9df8c80",
          "blockHash": "0x1e7147e88e9826b5766b7a837619143a46b9cb08eedb326a7c54a60f66ce209e",
          "blockNumber": "0x1fa077d",
          "blockTimestamp": "0x695f91db",
          "transactionHash": "0x5c9d80820c8006fed67e7ce739981506a68a6c7d69a4b377f751e5aa908786ae",
          "transactionIndex": "0x1",
          "logIndex": "0xc",
          "removed": false
        },
        {
          "address": "0xa7b59ac867940de5afb63a7a885ec9bb8d8598de",
          "topics": [
            "0x2da466a7b24304f47e87fa2e1e5a81b9831ce54fec19055ce277ca2f39ba42c4",
            "0x00000000000000000000000057bbcfa27123e352848a05645e3287c1058f09c0"
          ],
          "data": "0x00000000000000000000000000000000000000000000000000000000a9df8c80",
          "blockHash": "0x1e7147e88e9826b5766b7a837619143a46b9cb08eedb326a7c54a60f66ce209e",
          "blockNumber": "0x1fa077d",
          "blockTimestamp": "0x695f91db",
          "transactionHash": "0x5c9d80820c8006fed67e7ce739981506a68a6c7d69a4b377f751e5aa908786ae",
          "transactionIndex": "0x1",
          "logIndex": "0xd",
          "removed": false
        },
        {
          "address": "0xcb456899a90bc65ba19b899316623c481e3ebdcb",
          "topics": [
            "0xddf252ad1be2c89b69c2b068fc378daa952ba7f163c4a11628f55a4df523b3ef",
            "0x00000000000000000000000057bbcfa27123e352848a05645e3287c1058f09c0",
            "0x00000000000000000000000038c35a030ac45a511a7930dffd93fcdc2f67b6a8"
          ],
          "data": "0x000000000000000000000000000000000000000000000000000000002a77e320",
          "blockHash": "0x1e7147e88e9826b5766b7a837619143a46b9cb08eedb326a7c54a60f66ce209e",
          "blockNumber": "0x1fa077d",
          "blockTimestamp": "0x695f91db",
          "transactionHash": "0x5c9d80820c8006fed67e7ce739981506a68a6c7d69a4b377f751e5aa908786ae",
          "transactionIndex": "0x1",
          "logIndex": "0xe",
          "removed": false
        },
        {
          "address": "0x57bbcfa27123e352848a05645e3287c1058f09c0",
          "topics": [
            "0x6e8da5d005a81837a3348ed916b3068eb1b6a77c328ed76e4b38be7b56410f65"
          ],
          "data": "0x000000000000000000000000000000000000000000000000000000122333ab000000000000000000000000000000000000000000000000000000000153bf190000000000000000000000000000000000000000000000000000000001294735e000000000000000000000000000000000000000000000000000000000a9df8c80000000000000000000000000000000000000000000000000000000002a77e320",
          "blockHash": "0x1e7147e88e9826b5766b7a837619143a46b9cb08eedb326a7c54a60f66ce209e",
          "blockNumber": "0x1fa077d",
          "blockTimestamp": "0x695f91db",
          "transactionHash": "0x5c9d80820c8006fed67e7ce739981506a68a6c7d69a4b377f751e5aa908786ae",
          "transactionIndex": "0x1",
          "logIndex": "0xf",
          "removed": false
        },
        {
          "address": "0x19600cb6458e903f2ad335592046bd786c214677",
          "topics": [
            "0x190285dbd6df76ea1df2b1def381749fcd848b357af704852f93e02a1b63163e",
            "0x000000000000000000000000f5dc8de141b22d054621c9c413a40b95ac0d226f"
          ],
          "data": "0x000000000000000000000000000000000000000000000000000000037e11d60000000000000000000000000000000000000000000000000000000000695f91db",
          "blockHash": "0x1e7147e88e9826b5766b7a837619143a46b9cb08eedb326a7c54a60f66ce209e",
          "blockNumber": "0x1fa077d",
          "blockTimestamp": "0x695f91db",
          "transactionHash": "0x5c9d80820c8006fed67e7ce739981506a68a6c7d69a4b377f751e5aa908786ae",
          "transactionIndex": "0x1",
          "logIndex": "0x10",
          "removed": false
        },
        {
          "address": "0x665566b12f2e9e93d55f0f2ffdeae46553bd037d",
          "topics": [
            "0x098780f78fba60e0edc6f2e1ff456143f9803c5bf9f2cb202bd715d69b2e4e91",
            "0x00000000000000000000000038c35a030ac45a511a7930dffd93fcdc2f67b6a8"
          ],
          "data": "0x000000000000000000000000000000000000000000000000000000037e11d600",
          "blockHash": "0x1e7147e88e9826b5766b7a837619143a46b9cb08eedb326a7c54a60f66ce209e",
          "blockNumber": "0x1fa077d",
          "blockTimestamp": "0x695f91db",
          "transactionHash": "0x5c9d80820c8006fed67e7ce739981506a68a6c7d69a4b377f751e5aa908786ae",
          "transactionIndex": "0x1",
          "logIndex": "0x11",
          "removed": false
        },
        {
          "address": "0x210d2e01d0e3ec57dd0ecccce8ea6f893ff12c0c",
          "topics": [
            "0x3d80251ddaf5c4d60e9eb21420ea337ee2ed61874747e15f70d33ed395aa8032",
            "0x00000000000000000000000038c35a030ac45a511a7930dffd93fcdc2f67b6a8"
          ],
          "data": "0x0000000000000000000000000000000000000000000000000000000010fe768200000000000000000000000000000000000000000000000000000000695f91db",
          "blockHash": "0x1e7147e88e9826b5766b7a837619143a46b9cb08eedb326a7c54a60f66ce209e",
          "blockNumber": "0x1fa077d",
          "blockTimestamp": "0x695f91db",
          "transactionHash": "0x5c9d80820c8006fed67e7ce739981506a68a6c7d69a4b377f751e5aa908786ae",
          "transactionIndex": "0x1",
          "logIndex": "0x12",
          "removed": false
        },
        {
          "address": "0x210d2e01d0e3ec57dd0ecccce8ea6f893ff12c0c",
          "topics": [
            "0xcc8abc0e17b4d0b04ed7519133333d8b528711dfcabbbd2eb747d9fcaef4ab55",
            "0x00000000000000000000000038c35a030ac45a511a7930dffd93fcdc2f67b6a8"
          ],
          "data": "0x000000000000000000000000000000000000000000000000000000037e11d60000000000000000000000000000000000000000000000000000000000695f91db",
          "blockHash": "0x1e7147e88e9826b5766b7a837619143a46b9cb08eedb326a7c54a60f66ce209e",
          "blockNumber": "0x1fa077d",
          "blockTimestamp": "0x695f91db",
          "transactionHash": "0x5c9d80820c8006fed67e7ce739981506a68a6c7d69a4b377f751e5aa908786ae",
          "transactionIndex": "0x1",
          "logIndex": "0x13",
          "removed": false
        },
        {
          "address": "0x19600cb6458e903f2ad335592046bd786c214677",
          "topics": [
            "0x27c04b7e57b539cc7ccdbf9569797a18490d4ec2ddab65d443cdc540efed8acb",
            "0x00000000000000000000000038c35a030ac45a511a7930dffd93fcdc2f67b6a8"
          ],
          "data": "0x000000000000000000000000000000000000000000000000000000037e11d600000000000000000000000000000000000000000000000000000000037e11d600",
          "blockHash": "0x1e7147e88e9826b5766b7a837619143a46b9cb08eedb326a7c54a60f66ce209e",
          "blockNumber": "0x1fa077d",
          "blockTimestamp": "0x695f91db",
          "transactionHash": "0x5c9d80820c8006fed67e7ce739981506a68a6c7d69a4b377f751e5aa908786ae",
          "transactionIndex": "0x1",
          "logIndex": "0x14",
          "removed": false
        },
        {
          "address": "0xf5dc8de141b22d054621c9c413a40b95ac0d226f",
          "topics": [
            "0x90890809c654f11d6e72a28fa60149770a0d11ec6c92319d6ceb2bb0a4ea1a15",
            "0x00000000000000000000000038c35a030ac45a511a7930dffd93fcdc2f67b6a8",
            "0x0000000000000000000000000000000000000000000000000000000000000004"
          ],
          "data": "0x000000000000000000000000000000000000000000000000000000037e11d600",
          "blockHash": "0x1e7147e88e9826b5766b7a837619143a46b9cb08eedb326a7c54a60f66ce209e",
          "blockNumber": "0x1fa077d",
          "blockTimestamp": "0x695f91db",
          "transactionHash": "0x5c9d80820c8006fed67e7ce739981506a68a6c7d69a4b377f751e5aa908786ae",
          "transactionIndex": "0x1",
          "logIndex": "0x15",
          "removed": false
        }
      ],
      "logsBloom": "0x00008000000000800000000000000000000000000400000000080000010000010000000000040000000000000000000018000000000000000000200001200000000000000000008000000808040000000000001000000000000100048000600008001020020000000000000008000800000010000200000000000010000202004000040044000101080000200000000000010002000080080000000000000040020082008008400000140000000800000000000000000000002000000400400420000202000000010000000000000001000400008000000000000000000020020050018010000000000200000000000000800000500400000000300200000000",
      "type": "0x2",
      "transactionHash": "0x5c9d80820c8006fed67e7ce739981506a68a6c7d69a4b377f751e5aa908786ae",
      "transactionIndex": "0x1",
      "blockHash": "0x1e7147e88e9826b5766b7a837619143a46b9cb08eedb326a7c54a60f66ce209e",
      "blockNumber": "0x1fa077d",
      "gasUsed": "0x52f00631",
      "effectiveGasPrice": "0x132b3a0",
      "from": "0x38c35a030ac45a511a7930dffd93fcdc2f67b6a8",
      "to": "0xf5dc8de141b22d054621c9c413a40b95ac0d226f",
      "contractAddress": null,
      "l1Fee": "0x833b9a",
      "l1FeeScalar": "0.01",
      "l1GasPrice": "0x7b",
      "l1GasUsed": "0x8b0",
      "tokenRatio": "0xc48"
    },
    {
      "status": "0x1",
      "cumulativeGasUsed": "0x8b87a34",
      "logs": [],
      "logsBloom": "0x00000000000000000000000000000000000000000000000000000000000000000000000000000000000000000000000000000000000000000000000000000000000000000000000000000000000000000000000000000000000000000000000000000000000000000000000000000000000000000000000000000000000000000000000000000000000000000000000000000000000000000000000000000000000000000000000000000000000000000000000000000000000000000000000000000000000000000000000000000000000000000000000000000000000000000000000000000000000000000000000000000000000000000000000000000000",
      "type": "0x2",
      "transactionHash": "0x8b616fcb4ff16774fb8cb68373e05cdafbaa651b66060b4768692705f2ef5e81",
      "transactionIndex": "0x1",
      "blockHash": "0x3c93ad829ebb9271c2438e6d9661434838d0ac1fd2c54923b2ac217bda7cce5a",
      "blockNumber": "0x1fa077f",
      "gasUsed": "0x8b7c33b",
      "effectiveGasPrice": "0x132b3a0",
      "from": "0x38c35a030ac45a511a7930dffd93fcdc2f67b6a8",
      "to": "0x19600cb6458e903f2ad335592046bd786c214677",
      "contractAddress": null,
      "l1Fee": "0x8f4537",
      "l1FeeScalar": "0.01",
      "l1GasPrice": "0x7b",
      "l1GasUsed": "0x97c",
      "tokenRatio": "0xc48"
    },
    {
      "status": "0x1",
      "cumulativeGasUsed": "0x31052efe",
      "logs": [
        {
          "address": "0xf5dc8de141b22d054621c9c413a40b95ac0d226f",
          "topics": [
            "0xddf252ad1be2c89b69c2b068fc378daa952ba7f163c4a11628f55a4df523b3ef",
            "0x00000000000000000000000038c35a030ac45a511a7930dffd93fcdc2f67b6a8",
            "0x0000000000000000000000002222222222222222222222222222222222222222"
          ],
          "data": "0x00000000000000000000000000000000000000000000000000000001dcd65000",
          "blockHash": "0xe502c4ac62aa4934ea98f55d7e9f8313af7ed78d03a72b2e9ba5d8b43c87cfd1",
          "blockNumber": "0x1fa0781",
          "blockTimestamp": "0x695f91e3",
          "transactionHash": "0x3d230636b06e3031c1410f2469d81fc76845b00dee6b83ef6a9e389a31395425",
          "transactionIndex": "0x1",
          "logIndex": "0x0",
          "removed": false
        },
        {
          "address": "0x19600cb6458e903f2ad335592046bd786c214677",
          "topics": [
            "0xbbaf1e9b74f4a094a00b858ae65b005f60373515c5ea95a46c2491ec0c34614f",
            "0x000000000000000000000000f5dc8de141b22d054621c9c413a40b95ac0d226f"
          ],
          "data": "0x00000000000000000000000000000000000000000000000000000001dcd65000000000000000000000000000000000000000000000000000000000000000016c",
          "blockHash": "0xe502c4ac62aa4934ea98f55d7e9f8313af7ed78d03a72b2e9ba5d8b43c87cfd1",
          "blockNumber": "0x1fa0781",
          "blockTimestamp": "0x695f91e3",
          "transactionHash": "0x3d230636b06e3031c1410f2469d81fc76845b00dee6b83ef6a9e389a31395425",
          "transactionIndex": "0x1",
          "logIndex": "0x1",
          "removed": false
        },
        {
          "address": "0x19600cb6458e903f2ad335592046bd786c214677",
          "topics": [
            "0x190285dbd6df76ea1df2b1def381749fcd848b357af704852f93e02a1b63163e",
            "0x000000000000000000000000f5dc8de141b22d054621c9c413a40b95ac0d226f"
          ],
          "data": "0x00000000000000000000000000000000000000000000000000000001dcd6500000000000000000000000000000000000000000000000000000000000695f91e3",
          "blockHash": "0xe502c4ac62aa4934ea98f55d7e9f8313af7ed78d03a72b2e9ba5d8b43c87cfd1",
          "blockNumber": "0x1fa0781",
          "blockTimestamp": "0x695f91e3",
          "transactionHash": "0x3d230636b06e3031c1410f2469d81fc76845b00dee6b83ef6a9e389a31395425",
          "transactionIndex": "0x1",
          "logIndex": "0x2",
          "removed": false
        },
        {
          "address": "0x665566b12f2e9e93d55f0f2ffdeae46553bd037d",
          "topics": [
            "0xb45cd64a5416a536ca725507231d1c5910ba1ea2e12d16eb24db17764ea4deae"
          ],
          "data": "0x00000000000000000000000000000000000000000000000000000001dcd65000",
          "blockHash": "0xe502c4ac62aa4934ea98f55d7e9f8313af7ed78d03a72b2e9ba5d8b43c87cfd1",
          "blockNumber": "0x1fa0781",
          "blockTimestamp": "0x695f91e3",
          "transactionHash": "0x3d230636b06e3031c1410f2469d81fc76845b00dee6b83ef6a9e389a31395425",
          "transactionIndex": "0x1",
          "logIndex": "0x3",
          "removed": false
        },
        {
          "address": "0x665566b12f2e9e93d55f0f2ffdeae46553bd037d",
          "topics": [
            "0x098780f78fba60e0edc6f2e1ff456143f9803c5bf9f2cb202bd715d69b2e4e91",
            "0x00000000000000000000000038c35a030ac45a511a7930dffd93fcdc2f67b6a8"
          ],
          "data": "0x00000000000000000000000000000000000000000000000000000001dcd65000",
          "blockHash": "0xe502c4ac62aa4934ea98f55d7e9f8313af7ed78d03a72b2e9ba5d8b43c87cfd1",
          "blockNumber": "0x1fa0781",
          "blockTimestamp": "0x695f91e3",
          "transactionHash": "0x3d230636b06e3031c1410f2469d81fc76845b00dee6b83ef6a9e389a31395425",
          "transactionIndex": "0x1",
          "logIndex": "0x4",
          "removed": false
        },
        {
          "address": "0x210d2e01d0e3ec57dd0ecccce8ea6f893ff12c0c",
          "topics": [
            "0x3d80251ddaf5c4d60e9eb21420ea337ee2ed61874747e15f70d33ed395aa8032",
            "0x00000000000000000000000038c35a030ac45a511a7930dffd93fcdc2f67b6a8"
          ],
          "data": "0x0000000000000000000000000000000000000000000000000000000004815afa00000000000000000000000000000000000000000000000000000000695f91e3",
          "blockHash": "0xe502c4ac62aa4934ea98f55d7e9f8313af7ed78d03a72b2e9ba5d8b43c87cfd1",
          "blockNumber": "0x1fa0781",
          "blockTimestamp": "0x695f91e3",
          "transactionHash": "0x3d230636b06e3031c1410f2469d81fc76845b00dee6b83ef6a9e389a31395425",
          "transactionIndex": "0x1",
          "logIndex": "0x5",
          "removed": false
        },
        {
          "address": "0x210d2e01d0e3ec57dd0ecccce8ea6f893ff12c0c",
          "topics": [
            "0x3d80251ddaf5c4d60e9eb21420ea337ee2ed61874747e15f70d33ed395aa8032",
            "0x0000000000000000000000002222222222222222222222222222222222222222"
          ],
          "data": "0x00000000000000000000000000000000000000000000000000000000043bfc0000000000000000000000000000000000000000000000000000000000695f91e3",
          "blockHash": "0xe502c4ac62aa4934ea98f55d7e9f8313af7ed78d03a72b2e9ba5d8b43c87cfd1",
          "blockNumber": "0x1fa0781",
          "blockTimestamp": "0x695f91e3",
          "transactionHash": "0x3d230636b06e3031c1410f2469d81fc76845b00dee6b83ef6a9e389a31395425",
          "transactionIndex": "0x1",
          "logIndex": "0x6",
          "removed": false
        },
        {
          "address": "0x210d2e01d0e3ec57dd0ecccce8ea6f893ff12c0c",
          "topics": [
            "0xedcae93b4639a1a3d4f614e0e1544cef4e941137190e901eb56482876df09d85",
            "0x00000000000000000000000038c35a030ac45a511a7930dffd93fcdc2f67b6a8",
            "0x0000000000000000000000002222222222222222222222222222222222222222"
          ],
          "data": "0x000000000000000000000000000000000000000000000000000000014dc93800000000000000000000000000000000000000000000000000000000008f0d180000000000000000000000000000000000000000000000000000000000695f91e3",
          "blockHash": "0xe502c4ac62aa4934ea98f55d7e9f8313af7ed78d03a72b2e9ba5d8b43c87cfd1",
          "blockNumber": "0x1fa0781",
          "blockTimestamp": "0x695f91e3",
          "transactionHash": "0x3d230636b06e3031c1410f2469d81fc76845b00dee6b83ef6a9e389a31395425",
          "transactionIndex": "0x1",
          "logIndex": "0x7",
          "removed": false
        },
        {
          "address": "0x19600cb6458e903f2ad335592046bd786c214677",
          "topics": [
            "0x454a0eaea31b1bce4bad36e4574a032d6e6e974582517a0d76355a5f6c261562",
            "0x00000000000000000000000038c35a030ac45a511a7930dffd93fcdc2f67b6a8",
            "0x0000000000000000000000002222222222222222222222222222222222222222"
          ],
          "data": "0x00000000000000000000000000000000000000000000000000000001dcd65000000000000000000000000000000000000000000000000000000000000000016c0000000000000000000000000000000000000000000000000000000000000128000000000000000000000000000000000000000000000000000000014dc93800000000000000000000000000000000000000000000000000000000008f0d1800",
          "blockHash": "0xe502c4ac62aa4934ea98f55d7e9f8313af7ed78d03a72b2e9ba5d8b43c87cfd1",
          "blockNumber": "0x1fa0781",
          "blockTimestamp": "0x695f91e3",
          "transactionHash": "0x3d230636b06e3031c1410f2469d81fc76845b00dee6b83ef6a9e389a31395425",
          "transactionIndex": "0x1",
          "logIndex": "0x8",
          "removed": false
        }
      ],
      "logsBloom": "0x00000000000000000000000000000000000000000000000000000000010000000000000000000000000000000000000010080000000000000000000020000000000000000000000000000808000000000000000000000400004000008000400000000000000000000100000008000000040000000200000000000010000002000000040040080008000020000000000000000002000000080000000000000000000082008000400000000000400800000020000004000000000000000000400400000202000000000000000000000001000000000000000000000000000000000000008000000000000280100000000000800800100000000000300000000000",
      "type": "0x2",
      "transactionHash": "0x3d230636b06e3031c1410f2469d81fc76845b00dee6b83ef6a9e389a31395425",
      "transactionIndex": "0x1",
      "blockHash": "0xe502c4ac62aa4934ea98f55d7e9f8313af7ed78d03a72b2e9ba5d8b43c87cfd1",
      "blockNumber": "0x1fa0781",
      "gasUsed": "0x31045741",
      "effectiveGasPrice": "0x132b3a0",
      "from": "0x38c35a030ac45a511a7930dffd93fcdc2f67b6a8",
      "to": "0xf5dc8de141b22d054621c9c413a40b95ac0d226f",
      "contractAddress": null,
      "l1Fee": "0x96d440",
      "l1FeeScalar": "0.01",
      "l1GasPrice": "0x78",
      "l1GasUsed": "0xa3c",
      "tokenRatio": "0xc48"
    },
    {
      "status": "0x1",
      "cumulativeGasUsed": "0x6eff891",
      "logs": [
        {
          "address": "0xcb456899a90bc65ba19b899316623c481e3ebdcb",
          "topics": [
            "0xddf252ad1be2c89b69c2b068fc378daa952ba7f163c4a11628f55a4df523b3ef",
            "0x0000000000000000000000000000000000000000000000000000000000000000",
            "0x0000000000000000000000002222222222222222222222222222222222222222"
          ],
          "data": "0x00000000000000000000000000000000000000000000000000000006fc23ac00",
          "blockHash": "0xb7712fb9b2e6b11b5f541a4b40077ee55114794ee704a99bc407d58e08fdf6f1",
          "blockNumber": "0x1fa0783",
          "blockTimestamp": "0x695f91e7",
          "transactionHash": "0x11a2506478d8c4a8a55f9f6f7255a59404016c80b99fb836fca7955c5f3ec82b",
          "transactionIndex": "0x1",
          "logIndex": "0x0",
          "removed": false
        }
      ],
      "logsBloom": "0x00000000000000000000000000000000000000000000000000000000000000000000000000000000000000000000000000080000000000000000000020000000000000000000000000000008000000000000000000000000000000000000000000000000020000000000000000000800000000000000000000000010000000000000000000000000000000000000000000010000000000000000000000000000000000000000000000000000000000000000000000000000000000000400000020000002000000000000000000000000000000000000000000000000000020000000000000000000000000000000000000000800000000000000000000000000",
      "type": "0x2",
      "transactionHash": "0x11a2506478d8c4a8a55f9f6f7255a59404016c80b99fb836fca7955c5f3ec82b",
      "transactionIndex": "0x1",
      "blockHash": "0xb7712fb9b2e6b11b5f541a4b40077ee55114794ee704a99bc407d58e08fdf6f1",
      "blockNumber": "0x1fa0783",
      "gasUsed": "0x6ef4198",
      "effectiveGasPrice": "0x132b3a0",
      "from": "0x38c35a030ac45a511a7930dffd93fcdc2f67b6a8",
      "to": "0xcb456899a90bc65ba19b899316623c481e3ebdcb",
      "contractAddress": null,
      "l1Fee": "0x96d440",
      "l1FeeScalar": "0.01",
      "l1GasPrice": "0x78",
      "l1GasUsed": "0xa3c",
      "tokenRatio": "0xc48"
    },
    {
      "status": "0x1",
      "cumulativeGasUsed": "0x8cc002b",
      "logs": [
        {
          "address": "0xcb456899a90bc65ba19b899316623c481e3ebdcb",
          "topics": [
            "0x8c5be1e5ebec7d5bd14f71427d1e84f3dd0314c0f7b2291e5b200ac8c7c3b925",
            "0x00000000000000000000000038c35a030ac45a511a7930dffd93fcdc2f67b6a8",
            "0x000000000000000000000000f5dc8de141b22d054621c9c413a40b95ac0d226f"
          ],
          "data": "0x00000000000000000000000000000000000000000000000000000002cb417800",
          "blockHash": "0xe0a94e7a1e7a9e40e79f59fc74c4bcf5eed638732d23019e7c6b474212ced007",
          "blockNumber": "0x1fa0785",
          "blockTimestamp": "0x695f91eb",
          "transactionHash": "0x72dc196c6346f665aff316c52aebedd335a43395ffee4018ac31ccd12eeb2264",
          "transactionIndex": "0x1",
          "logIndex": "0x0",
          "removed": false
        }
      ],
      "logsBloom": "0x00000000000000000000000000000000000000000000000000000000000000000000000000000000000000000000000010000000000000000000000000200000000000000000000000000000000000000000000000000000000000000000000000000000000000000000000000000000000000000200000000000000000000000000000040000000000000000000000000010000000000000000000000000000020002000000000000000000000000000000000000000000000000000400400020000000000000000000000000000000000000000000000000000000000000000010008000000000000000000000000000000000000000000000000000000000",
      "type": "0x2",
      "transactionHash": "0x72dc196c6346f665aff316c52aebedd335a43395ffee4018ac31ccd12eeb2264",
      "transactionIndex": "0x1",
      "blockHash": "0xe0a94e7a1e7a9e40e79f59fc74c4bcf5eed638732d23019e7c6b474212ced007",
      "blockNumber": "0x1fa0785",
      "gasUsed": "0x8cb4932",
      "effectiveGasPrice": "0x132b3a0",
      "from": "0x38c35a030ac45a511a7930dffd93fcdc2f67b6a8",
      "to": "0xcb456899a90bc65ba19b899316623c481e3ebdcb",
      "contractAddress": null,
      "l1Fee": "0x96d440",
      "l1FeeScalar": "0.01",
      "l1GasPrice": "0x78",
      "l1GasUsed": "0xa3c",
      "tokenRatio": "0xc48"
    },
    {
      "status": "0x1",
      "cumulativeGasUsed": "0x52f0dde2",
      "logs": [
        {
          "address": "0xcb456899a90bc65ba19b899316623c481e3ebdcb",
          "topics": [
            "0xddf252ad1be2c89b69c2b068fc378daa952ba7f163c4a11628f55a4df523b3ef",
            "0x00000000000000000000000038c35a030ac45a511a7930dffd93fcdc2f67b6a8",
            "0x000000000000000000000000f5dc8de141b22d054621c9c413a40b95ac0d226f"
          ],
          "data": "0x00000000000000000000000000000000000000000000000000000002cb417800",
          "blockHash": "0x69251ac7227d3850755a5c40d41af0b086fdc7fa4d785548c97f6751a6fe4e8d",
          "blockNumber": "0x1fa0787",
          "blockTimestamp": "0x695f91ef",
          "transactionHash": "0x460ff4b96e81391bc8fcd43ff217d7f1795267acab9d5664b0d0bded52071e54",
          "transactionIndex": "0x1",
          "logIndex": "0x0",
          "removed": false
        },
        {
          "address": "0xf5dc8de141b22d054621c9c413a40b95ac0d226f",
          "topics": [
            "0xddf252ad1be2c89b69c2b068fc378daa952ba7f163c4a11628f55a4df523b3ef",
            "0x0000000000000000000000000000000000000000000000000000000000000000",
            "0x00000000000000000000000038c35a030ac45a511a7930dffd93fcdc2f67b6a8"
          ],
          "data": "0x00000000000000000000000000000000000000000000000000000002cb417800",
          "blockHash": "0x69251ac7227d3850755a5c40d41af0b086fdc7fa4d785548c97f6751a6fe4e8d",
          "blockNumber": "0x1fa0787",
          "blockTimestamp": "0x695f91ef",
          "transactionHash": "0x460ff4b96e81391bc8fcd43ff217d7f1795267acab9d5664b0d0bded52071e54",
          "transactionIndex": "0x1",
          "logIndex": "0x1",
          "removed": false
        },
        {
          "address": "0xcb456899a90bc65ba19b899316623c481e3ebdcb",
          "topics": [
            "0x8c5be1e5ebec7d5bd14f71427d1e84f3dd0314c0f7b2291e5b200ac8c7c3b925",
            "0x000000000000000000000000f5dc8de141b22d054621c9c413a40b95ac0d226f",
            "0x00000000000000000000000057bbcfa27123e352848a05645e3287c1058f09c0"
          ],
          "data": "0x00000000000000000000000000000000000000000000000000000002cb417800",
          "blockHash": "0x69251ac7227d3850755a5c40d41af0b086fdc7fa4d785548c97f6751a6fe4e8d",
          "blockNumber": "0x1fa0787",
          "blockTimestamp": "0x695f91ef",
          "transactionHash": "0x460ff4b96e81391bc8fcd43ff217d7f1795267acab9d5664b0d0bded52071e54",
          "transactionIndex": "0x1",
          "logIndex": "0x2",
          "removed": false
        },
        {
          "address": "0xcb456899a90bc65ba19b899316623c481e3ebdcb",
          "topics": [
            "0xddf252ad1be2c89b69c2b068fc378daa952ba7f163c4a11628f55a4df523b3ef",
            "0x000000000000000000000000f5dc8de141b22d054621c9c413a40b95ac0d226f",
            "0x00000000000000000000000057bbcfa27123e352848a05645e3287c1058f09c0"
          ],
          "data": "0x00000000000000000000000000000000000000000000000000000002cb417800",
          "blockHash": "0x69251ac7227d3850755a5c40d41af0b086fdc7fa4d785548c97f6751a6fe4e8d",
          "blockNumber": "0x1fa0787",
          "blockTimestamp": "0x695f91ef",
          "transactionHash": "0x460ff4b96e81391bc8fcd43ff217d7f1795267acab9d5664b0d0bded52071e54",
          "transactionIndex": "0x1",
          "logIndex": "0x3",
          "removed": false
        },
        {
          "address": "0x57bbcfa27123e352848a05645e3287c1058f09c0",
          "topics": [
            "0x2da466a7b24304f47e87fa2e1e5a81b9831ce54fec19055ce277ca2f39ba42c4",
            "0x000000000000000000000000f5dc8de141b22d054621c9c413a40b95ac0d226f"
          ],
          "data": "0x00000000000000000000000000000000000000000000000000000002cb417800",
          "blockHash": "0x69251ac7227d3850755a5c40d41af0b086fdc7fa4d785548c97f6751a6fe4e8d",
          "blockNumber": "0x1fa0787",
          "blockTimestamp": "0x695f91ef",
          "transactionHash": "0x460ff4b96e81391bc8fcd43ff217d7f1795267acab9d5664b0d0bded52071e54",
          "transactionIndex": "0x1",
          "logIndex": "0x4",
          "removed": false
        },
        {
          "address": "0xcb456899a90bc65ba19b899316623c481e3ebdcb",
          "topics": [
            "0x8c5be1e5ebec7d5bd14f71427d1e84f3dd0314c0f7b2291e5b200ac8c7c3b925",
            "0x00000000000000000000000057bbcfa27123e352848a05645e3287c1058f09c0",
            "0x000000000000000000000000bf4aab99d5c8d1093dd74f31b8cc2b6065f4c723"
          ],
          "data": "0x000000000000000000000000000000000000000000000000000000010fcc1400",
          "blockHash": "0x69251ac7227d3850755a5c40d41af0b086fdc7fa4d785548c97f6751a6fe4e8d",
          "blockNumber": "0x1fa0787",
          "blockTimestamp": "0x695f91ef",
          "transactionHash": "0x460ff4b96e81391bc8fcd43ff217d7f1795267acab9d5664b0d0bded52071e54",
          "transactionIndex": "0x1",
          "logIndex": "0x5",
          "removed": false
        },
        {
          "address": "0xcb456899a90bc65ba19b899316623c481e3ebdcb",
          "topics": [
            "0xddf252ad1be2c89b69c2b068fc378daa952ba7f163c4a11628f55a4df523b3ef",
            "0x00000000000000000000000057bbcfa27123e352848a05645e3287c1058f09c0",
            "0x000000000000000000000000bf4aab99d5c8d1093dd74f31b8cc2b6065f4c723"
          ],
          "data": "0x000000000000000000000000000000000000000000000000000000010fcc1400",
          "blockHash": "0x69251ac7227d3850755a5c40d41af0b086fdc7fa4d785548c97f6751a6fe4e8d",
          "blockNumber": "0x1fa0787",
          "blockTimestamp": "0x695f91ef",
          "transactionHash": "0x460ff4b96e81391bc8fcd43ff217d7f1795267acab9d5664b0d0bded52071e54",
          "transactionIndex": "0x1",
          "logIndex": "0x6",
          "removed": false
        },
        {
          "address": "0xbf4aab99d5c8d1093dd74f31b8cc2b6065f4c723",
          "topics": [
            "0x2da466a7b24304f47e87fa2e1e5a81b9831ce54fec19055ce277ca2f39ba42c4",
            "0x00000000000000000000000057bbcfa27123e352848a05645e3287c1058f09c0"
          ],
          "data": "0x000000000000000000000000000000000000000000000000000000010fcc1400",
          "blockHash": "0x69251ac7227d3850755a5c40d41af0b086fdc7fa4d785548c97f6751a6fe4e8d",
          "blockNumber": "0x1fa0787",
          "blockTimestamp": "0x695f91ef",
          "transactionHash": "0x460ff4b96e81391bc8fcd43ff217d7f1795267acab9d5664b0d0bded52071e54",
          "transactionIndex": "0x1",
          "logIndex": "0x7",
          "removed": false
        },
        {
          "address": "0xcb456899a90bc65ba19b899316623c481e3ebdcb",
          "topics": [
            "0x8c5be1e5ebec7d5bd14f71427d1e84f3dd0314c0f7b2291e5b200ac8c7c3b925",
            "0x00000000000000000000000057bbcfa27123e352848a05645e3287c1058f09c0",
            "0x00000000000000000000000050ca65c6e8ce950b8bad775dd4ef04eccfb25261"
          ],
          "data": "0x00000000000000000000000000000000000000000000000000000000edd29180",
          "blockHash": "0x69251ac7227d3850755a5c40d41af0b086fdc7fa4d785548c97f6751a6fe4e8d",
          "blockNumber": "0x1fa0787",
          "blockTimestamp": "0x695f91ef",
          "transactionHash": "0x460ff4b96e81391bc8fcd43ff217d7f1795267acab9d5664b0d0bded52071e54",
          "transactionIndex": "0x1",
          "logIndex": "0x8",
          "removed": false
        },
        {
          "address": "0xcb456899a90bc65ba19b899316623c481e3ebdcb",
          "topics": [
            "0xddf252ad1be2c89b69c2b068fc378daa952ba7f163c4a11628f55a4df523b3ef",
            "0x00000000000000000000000057bbcfa27123e352848a05645e3287c1058f09c0",
            "0x00000000000000000000000050ca65c6e8ce950b8bad775dd4ef04eccfb25261"
          ],
          "data": "0x00000000000000000000000000000000000000000000000000000000edd29180",
          "blockHash": "0x69251ac7227d3850755a5c40d41af0b086fdc7fa4d785548c97f6751a6fe4e8d",
          "blockNumber": "0x1fa0787",
          "blockTimestamp": "0x695f91ef",
          "transactionHash": "0x460ff4b96e81391bc8fcd43ff217d7f1795267acab9d5664b0d0bded52071e54",
          "transactionIndex": "0x1",
          "logIndex": "0x9",
          "removed": false
        },
        {
          "address": "0x50ca65c6e8ce950b8bad775dd4ef04eccfb25261",
          "topics": [
            "0x2da466a7b24304f47e87fa2e1e5a81b9831ce54fec19055ce277ca2f39ba42c4",
            "0x00000000000000000000000057bbcfa27123e352848a05645e3287c1058f09c0"
          ],
          "data": "0x00000000000000000000000000000000000000000000000000000000edd29180",
          "blockHash": "0x69251ac7227d3850755a5c40d41af0b086fdc7fa4d785548c97f6751a6fe4e8d",
          "blockNumber": "0x1fa0787",
          "blockTimestamp": "0x695f91ef",
          "transactionHash": "0x460ff4b96e81391bc8fcd43ff217d7f1795267acab9d5664b0d0bded52071e54",
          "transactionIndex": "0x1",
          "logIndex": "0xa",
          "removed": false
        },
        {
          "address": "0xcb456899a90bc65ba19b899316623c481e3ebdcb",
          "topics": [
            "0x8c5be1e5ebec7d5bd14f71427d1e84f3dd0314c0f7b2291e5b200ac8c7c3b925",
            "0x00000000000000000000000057bbcfa27123e352848a05645e3287c1058f09c0",
            "0x000000000000000000000000a7b59ac867940de5afb63a7a885ec9bb8d8598de"
          ],
          "data": "0x0000000000000000000000000000000000000000000000000000000087e60a00",
          "blockHash": "0x69251ac7227d3850755a5c40d41af0b086fdc7fa4d785548c97f6751a6fe4e8d",
          "blockNumber": "0x1fa0787",
          "blockTimestamp": "0x695f91ef",
          "transactionHash": "0x460ff4b96e81391bc8fcd43ff217d7f1795267acab9d5664b0d0bded52071e54",
          "transactionIndex": "0x1",
          "logIndex": "0xb",
          "removed": false
        },
        {
          "address": "0xcb456899a90bc65ba19b899316623c481e3ebdcb",
          "topics": [
            "0xddf252ad1be2c89b69c2b068fc378daa952ba7f163c4a11628f55a4df523b3ef",
            "0x00000000000000000000000057bbcfa27123e352848a05645e3287c1058f09c0",
            "0x000000000000000000000000a7b59ac867940de5afb63a7a885ec9bb8d8598de"
          ],
          "data": "0x0000000000000000000000000000000000000000000000000000000087e60a00",
          "blockHash": "0x69251ac7227d3850755a5c40d41af0b086fdc7fa4d785548c97f6751a6fe4e8d",
          "blockNumber": "0x1fa0787",
          "blockTimestamp": "0x695f91ef",
          "transactionHash": "0x460ff4b96e81391bc8fcd43ff217d7f1795267acab9d5664b0d0bded52071e54",
          "transactionIndex": "0x1",
          "logIndex": "0xc",
          "removed": false
        },
        {
          "address": "0xa7b59ac867940de5afb63a7a885ec9bb8d8598de",
          "topics": [
            "0x2da466a7b24304f47e87fa2e1e5a81b9831ce54fec19055ce277ca2f39ba42c4",
            "0x00000000000000000000000057bbcfa27123e352848a05645e3287c1058f09c0"
          ],
          "data": "0x0000000000000000000000000000000000000000000000000000000087e60a00",
          "blockHash": "0x69251ac7227d3850755a5c40d41af0b086fdc7fa4d785548c97f6751a6fe4e8d",
          "blockNumber": "0x1fa0787",
          "blockTimestamp": "0x695f91ef",
          "transactionHash": "0x460ff4b96e81391bc8fcd43ff217d7f1795267acab9d5664b0d0bded52071e54",
          "transactionIndex": "0x1",
          "logIndex": "0xd",
          "removed": false
        },
        {
          "address": "0xcb456899a90bc65ba19b899316623c481e3ebdcb",
          "topics": [
            "0xddf252ad1be2c89b69c2b068fc378daa952ba7f163c4a11628f55a4df523b3ef",
            "0x00000000000000000000000057bbcfa27123e352848a05645e3287c1058f09c0",
            "0x00000000000000000000000038c35a030ac45a511a7930dffd93fcdc2f67b6a8"
          ],
          "data": "0x0000000000000000000000000000000000000000000000000000000021f98280",
          "blockHash": "0x69251ac7227d3850755a5c40d41af0b086fdc7fa4d785548c97f6751a6fe4e8d",
          "blockNumber": "0x1fa0787",
          "blockTimestamp": "0x695f91ef",
          "transactionHash": "0x460ff4b96e81391bc8fcd43ff217d7f1795267acab9d5664b0d0bded52071e54",
          "transactionIndex": "0x1",
          "logIndex": "0xe",
          "removed": false
        },
        {
          "address": "0x57bbcfa27123e352848a05645e3287c1058f09c0",
          "topics": [
            "0x6e8da5d005a81837a3348ed916b3068eb1b6a77c328ed76e4b38be7b56410f65"
          ],
          "data": "0x00000000000000000000000000000000000000000000000000000014cab1dd00000000000000000000000000000000000000000000000000000000010fcc140000000000000000000000000000000000000000000000000000000000edd291800000000000000000000000000000000000000000000000000000000087e60a000000000000000000000000000000000000000000000000000000000021f98280",
          "blockHash": "0x69251ac7227d3850755a5c40d41af0b086fdc7fa4d785548c97f6751a6fe4e8d",
          "blockNumber": "0x1fa0787",
          "blockTimestamp": "0x695f91ef",
          "transactionHash": "0x460ff4b96e81391bc8fcd43ff217d7f1795267acab9d5664b0d0bded52071e54",
          "transactionIndex": "0x1",
          "logIndex": "0xf",
          "removed": false
        },
        {
          "address": "0x19600cb6458e903f2ad335592046bd786c214677",
          "topics": [
            "0x190285dbd6df76ea1df2b1def381749fcd848b357af704852f93e02a1b63163e",
            "0x000000000000000000000000f5dc8de141b22d054621c9c413a40b95ac0d226f"
          ],
          "data": "0x00000000000000000000000000000000000000000000000000000002cb41780000000000000000000000000000000000000000000000000000000000695f91ef",
          "blockHash": "0x69251ac7227d3850755a5c40d41af0b086fdc7fa4d785548c97f6751a6fe4e8d",
          "blockNumber": "0x1fa0787",
          "blockTimestamp": "0x695f91ef",
          "transactionHash": "0x460ff4b96e81391bc8fcd43ff217d7f1795267acab9d5664b0d0bded52071e54",
          "transactionIndex": "0x1",
          "logIndex": "0x10",
          "removed": false
        },
        {
          "address": "0x665566b12f2e9e93d55f0f2ffdeae46553bd037d",
          "topics": [
            "0x098780f78fba60e0edc6f2e1ff456143f9803c5bf9f2cb202bd715d69b2e4e91",
            "0x00000000000000000000000038c35a030ac45a511a7930dffd93fcdc2f67b6a8"
          ],
          "data": "0x00000000000000000000000000000000000000000000000000000002cb417800",
          "blockHash": "0x69251ac7227d3850755a5c40d41af0b086fdc7fa4d785548c97f6751a6fe4e8d",
          "blockNumber": "0x1fa0787",
          "blockTimestamp": "0x695f91ef",
          "transactionHash": "0x460ff4b96e81391bc8fcd43ff217d7f1795267acab9d5664b0d0bded52071e54",
          "transactionIndex": "0x1",
          "logIndex": "0x11",
          "removed": false
        },
        {
          "address": "0x210d2e01d0e3ec57dd0ecccce8ea6f893ff12c0c",
          "topics": [
            "0x3d80251ddaf5c4d60e9eb21420ea337ee2ed61874747e15f70d33ed395aa8032",
            "0x00000000000000000000000038c35a030ac45a511a7930dffd93fcdc2f67b6a8"
          ],
          "data": "0x000000000000000000000000000000000000000000000000000000000729f4c600000000000000000000000000000000000000000000000000000000695f91ef",
          "blockHash": "0x69251ac7227d3850755a5c40d41af0b086fdc7fa4d785548c97f6751a6fe4e8d",
          "blockNumber": "0x1fa0787",
          "blockTimestamp": "0x695f91ef",
          "transactionHash": "0x460ff4b96e81391bc8fcd43ff217d7f1795267acab9d5664b0d0bded52071e54",
          "transactionIndex": "0x1",
          "logIndex": "0x12",
          "removed": false
        },
        {
          "address": "0x210d2e01d0e3ec57dd0ecccce8ea6f893ff12c0c",
          "topics": [
            "0xcc8abc0e17b4d0b04ed7519133333d8b528711dfcabbbd2eb747d9fcaef4ab55",
            "0x00000000000000000000000038c35a030ac45a511a7930dffd93fcdc2f67b6a8"
          ],
          "data": "0x00000000000000000000000000000000000000000000000000000002cb41780000000000000000000000000000000000000000000000000000000000695f91ef",
          "blockHash": "0x69251ac7227d3850755a5c40d41af0b086fdc7fa4d785548c97f6751a6fe4e8d",
          "blockNumber": "0x1fa0787",
          "blockTimestamp": "0x695f91ef",
          "transactionHash": "0x460ff4b96e81391bc8fcd43ff217d7f1795267acab9d5664b0d0bded52071e54",
          "transactionIndex": "0x1",
          "logIndex": "0x13",
          "removed": false
        },
        {
          "address": "0x19600cb6458e903f2ad335592046bd786c214677",
          "topics": [
            "0x27c04b7e57b539cc7ccdbf9569797a18490d4ec2ddab65d443cdc540efed8acb",
            "0x00000000000000000000000038c35a030ac45a511a7930dffd93fcdc2f67b6a8"
          ],
          "data": "0x00000000000000000000000000000000000000000000000000000002cb41780000000000000000000000000000000000000000000000000000000002cb417800",
          "blockHash": "0x69251ac7227d3850755a5c40d41af0b086fdc7fa4d785548c97f6751a6fe4e8d",
          "blockNumber": "0x1fa0787",
          "blockTimestamp": "0x695f91ef",
          "transactionHash": "0x460ff4b96e81391bc8fcd43ff217d7f1795267acab9d5664b0d0bded52071e54",
          "transactionIndex": "0x1",
          "logIndex": "0x14",
          "removed": false
        },
        {
          "address": "0xf5dc8de141b22d054621c9c413a40b95ac0d226f",
          "topics": [
            "0x90890809c654f11d6e72a28fa60149770a0d11ec6c92319d6ceb2bb0a4ea1a15",
            "0x00000000000000000000000038c35a030ac45a511a7930dffd93fcdc2f67b6a8",
            "0x0000000000000000000000000000000000000000000000000000000000000005"
          ],
          "data": "0x00000000000000000000000000000000000000000000000000000002cb417800",
          "blockHash": "0x69251ac7227d3850755a5c40d41af0b086fdc7fa4d785548c97f6751a6fe4e8d",
          "blockNumber": "0x1fa0787",
          "blockTimestamp": "0x695f91ef",
          "transactionHash": "0x460ff4b96e81391bc8fcd43ff217d7f1795267acab9d5664b0d0bded52071e54",
          "transactionIndex": "0x1",
          "logIndex": "0x15",
          "removed": false
        }
      ],
      "logsBloom": "0x00008000000000800000000000000000000000000400000000080000010000010000000000040000000000000000000018000000000000000000200001200000000010000000008000000808040000000000001000000000000100048000600000001020020000000000000008000800000010000200000000000010000202004000040044000101080000200000001000010802000080080000000000000040020082008008400000140000000800000000000000000000000000000400400420000202000000010000000000000001000400000000000000000000000020020050018010000000000200000000000000800000500400000000300200000000",
      "type": "0x2",
      "transactionHash": "0x460ff4b96e81391bc8fcd43ff217d7f1795267acab9d5664b0d0bded52071e54",
      "transactionIndex": "0x1",
      "blockHash": "0x69251ac7227d3850755a5c40d41af0b086fdc7fa4d785548c97f6751a6fe4e8d",
      "blockNumber": "0x1fa0787",
      "gasUsed": "0x52f00631",
      "effectiveGasPrice": "0x132b3a0",
      "from": "0x38c35a030ac45a511a7930dffd93fcdc2f67b6a8",
      "to": "0xf5dc8de141b22d054621c9c413a40b95ac0d226f",
      "contractAddress": null,
      "l1Fee": "0x78242e",
      "l1FeeScalar": "0.01",
      "l1GasPrice": "0x70",
      "l1GasUsed": "0x8bc",
      "tokenRatio": "0xc48"
    },
    {
      "status": "0x1",
      "cumulativeGasUsed": "0x25bf92d2",
      "logs": [
        {
          "address": "0xf5dc8de141b22d054621c9c413a40b95ac0d226f",
          "topics": [
            "0xddf252ad1be2c89b69c2b068fc378daa952ba7f163c4a11628f55a4df523b3ef",
            "0x00000000000000000000000038c35a030ac45a511a7930dffd93fcdc2f67b6a8",
            "0x00000000000000000000000038c35a030ac45a511a7930dffd93fcdc2f67b6a8"
          ],
          "data": "0x000000000000000000000000000000000000000000000000000000012a05f200",
          "blockHash": "0x15d1ad869f39e941495bc072d742b4d329a934a78d5e31e3d046228856b10b50",
          "blockNumber": "0x1fa0789",
          "blockTimestamp": "0x695f91f3",
          "transactionHash": "0x380af47fa478018c6e763f79884526081d6e9c9a2c684a288a837cb848ef8800",
          "transactionIndex": "0x1",
          "logIndex": "0x0",
          "removed": false
        },
        {
          "address": "0x19600cb6458e903f2ad335592046bd786c214677",
          "topics": [
            "0xbbaf1e9b74f4a094a00b858ae65b005f60373515c5ea95a46c2491ec0c34614f",
            "0x000000000000000000000000f5dc8de141b22d054621c9c413a40b95ac0d226f"
          ],
          "data": "0x000000000000000000000000000000000000000000000000000000012a05f2000000000000000000000000000000000000000000000000000000000000000148",
          "blockHash": "0x15d1ad869f39e941495bc072d742b4d329a934a78d5e31e3d046228856b10b50",
          "blockNumber": "0x1fa0789",
          "blockTimestamp": "0x695f91f3",
          "transactionHash": "0x380af47fa478018c6e763f79884526081d6e9c9a2c684a288a837cb848ef8800",
          "transactionIndex": "0x1",
          "logIndex": "0x1",
          "removed": false
        },
        {
          "address": "0x19600cb6458e903f2ad335592046bd786c214677",
          "topics": [
            "0x190285dbd6df76ea1df2b1def381749fcd848b357af704852f93e02a1b63163e",
            "0x000000000000000000000000f5dc8de141b22d054621c9c413a40b95ac0d226f"
          ],
          "data": "0x000000000000000000000000000000000000000000000000000000012a05f20000000000000000000000000000000000000000000000000000000000695f91f3",
          "blockHash": "0x15d1ad869f39e941495bc072d742b4d329a934a78d5e31e3d046228856b10b50",
          "blockNumber": "0x1fa0789",
          "blockTimestamp": "0x695f91f3",
          "transactionHash": "0x380af47fa478018c6e763f79884526081d6e9c9a2c684a288a837cb848ef8800",
          "transactionIndex": "0x1",
          "logIndex": "0x2",
          "removed": false
        },
        {
          "address": "0x665566b12f2e9e93d55f0f2ffdeae46553bd037d",
          "topics": [
            "0xb45cd64a5416a536ca725507231d1c5910ba1ea2e12d16eb24db17764ea4deae"
          ],
          "data": "0x000000000000000000000000000000000000000000000000000000012a05f200",
          "blockHash": "0x15d1ad869f39e941495bc072d742b4d329a934a78d5e31e3d046228856b10b50",
          "blockNumber": "0x1fa0789",
          "blockTimestamp": "0x695f91f3",
          "transactionHash": "0x380af47fa478018c6e763f79884526081d6e9c9a2c684a288a837cb848ef8800",
          "transactionIndex": "0x1",
          "logIndex": "0x3",
          "removed": false
        },
        {
          "address": "0x665566b12f2e9e93d55f0f2ffdeae46553bd037d",
          "topics": [
            "0x098780f78fba60e0edc6f2e1ff456143f9803c5bf9f2cb202bd715d69b2e4e91",
            "0x00000000000000000000000038c35a030ac45a511a7930dffd93fcdc2f67b6a8"
          ],
          "data": "0x000000000000000000000000000000000000000000000000000000012a05f200",
          "blockHash": "0x15d1ad869f39e941495bc072d742b4d329a934a78d5e31e3d046228856b10b50",
          "blockNumber": "0x1fa0789",
          "blockTimestamp": "0x695f91f3",
          "transactionHash": "0x380af47fa478018c6e763f79884526081d6e9c9a2c684a288a837cb848ef8800",
          "transactionIndex": "0x1",
          "logIndex": "0x4",
          "removed": false
        },
        {
          "address": "0x210d2e01d0e3ec57dd0ecccce8ea6f893ff12c0c",
          "topics": [
            "0x3d80251ddaf5c4d60e9eb21420ea337ee2ed61874747e15f70d33ed395aa8032",
            "0x00000000000000000000000038c35a030ac45a511a7930dffd93fcdc2f67b6a8"
          ],
          "data": "0x0000000000000000000000000000000000000000000000000000000002ad4b6300000000000000000000000000000000000000000000000000000000695f91f3",
          "blockHash": "0x15d1ad869f39e941495bc072d742b4d329a934a78d5e31e3d046228856b10b50",
          "blockNumber": "0x1fa0789",
          "blockTimestamp": "0x695f91f3",
          "transactionHash": "0x380af47fa478018c6e763f79884526081d6e9c9a2c684a288a837cb848ef8800",
          "transactionIndex": "0x1",
          "logIndex": "0x5",
          "removed": false
        },
        {
          "address": "0x210d2e01d0e3ec57dd0ecccce8ea6f893ff12c0c",
          "topics": [
            "0xedcae93b4639a1a3d4f614e0e1544cef4e941137190e901eb56482876df09d85",
            "0x00000000000000000000000038c35a030ac45a511a7930dffd93fcdc2f67b6a8",
            "0x00000000000000000000000038c35a030ac45a511a7930dffd93fcdc2f67b6a8"
          ],
          "data": "0x00000000000000000000000000000000000000000000000000000000d09dc3000000000000000000000000000000000000000000000000000000000059682f0000000000000000000000000000000000000000000000000000000000695f91f3",
          "blockHash": "0x15d1ad869f39e941495bc072d742b4d329a934a78d5e31e3d046228856b10b50",
          "blockNumber": "0x1fa0789",
          "blockTimestamp": "0x695f91f3",
          "transactionHash": "0x380af47fa478018c6e763f79884526081d6e9c9a2c684a288a837cb848ef8800",
          "transactionIndex": "0x1",
          "logIndex": "0x6",
          "removed": false
        },
        {
          "address": "0x19600cb6458e903f2ad335592046bd786c214677",
          "topics": [
            "0x454a0eaea31b1bce4bad36e4574a032d6e6e974582517a0d76355a5f6c261562",
            "0x00000000000000000000000038c35a030ac45a511a7930dffd93fcdc2f67b6a8",
            "0x00000000000000000000000038c35a030ac45a511a7930dffd93fcdc2f67b6a8"
          ],
          "data": "0x000000000000000000000000000000000000000000000000000000012a05f2000000000000000000000000000000000000000000000000000000000000000148000000000000000000000000000000000000000000000000000000000000008200000000000000000000000000000000000000000000000000000000d09dc3000000000000000000000000000000000000000000000000000000000059682f00",
          "blockHash": "0x15d1ad869f39e941495bc072d742b4d329a934a78d5e31e3d046228856b10b50",
          "blockNumber": "0x1fa0789",
          "blockTimestamp": "0x695f91f3",
          "transactionHash": "0x380af47fa478018c6e763f79884526081d6e9c9a2c684a288a837cb848ef8800",
          "transactionIndex": "0x1",
          "logIndex": "0x7",
          "removed": false
        }
      ],
      "logsBloom": "0x00000000000000000000000000000000000000000000000000000000010000000000000000000000000000000000000010000000000000000000000000000000000000000000000000000808000000000000000000000400004000008000400000000000000000000100000008000000040000000200000000000010000002000000040040080008000020000000000000000002000000080000000000000000000082008000400000000000400800000020000004000000000000000000400400000202000000000000000000000001000000000000000000000000000000000000008000000000000280100000000000800000100000000000300000000000",
      "type": "0x2",
      "transactionHash": "0x380af47fa478018c6e763f79884526081d6e9c9a2c684a288a837cb848ef8800",
      "transactionIndex": "0x1",
      "blockHash": "0x15d1ad869f39e941495bc072d742b4d329a934a78d5e31e3d046228856b10b50",
      "blockNumber": "0x1fa0789",
      "gasUsed": "0x25bedbe5",
      "effectiveGasPrice": "0x132b3a0",
      "from": "0x38c35a030ac45a511a7930dffd93fcdc2f67b6a8",
      "to": "0xf5dc8de141b22d054621c9c413a40b95ac0d226f",
      "contractAddress": null,
      "l1Fee": "0x8cc619",
      "l1FeeScalar": "0.01",
      "l1GasPrice": "0x70",
      "l1GasUsed": "0xa3c",
      "tokenRatio": "0xc48"
    },
    {
      "status": "0x1",
      "cumulativeGasUsed": "0x5b3a58b",
      "logs": [
        {
          "address": "0x665566b12f2e9e93d55f0f2ffdeae46553bd037d",
          "topics": [
            "0xb45cd64a5416a536ca725507231d1c5910ba1ea2e12d16eb24db17764ea4deae"
          ],
          "data": "0x0000000000000000000000000000000000000000000000000000000306dc4200",
          "blockHash": "0xc6abcd7afea4d211e26d064ed2e146ba315bc3d6c8ee7acf9aa38128ae453592",
          "blockNumber": "0x1fa078b",
          "blockTimestamp": "0x695f91f7",
          "transactionHash": "0x233fb94d1ec08a2b884300719fe6e383acbfc27fbb1a2287f89d5229b4b3c927",
          "transactionIndex": "0x1",
          "logIndex": "0x0",
          "removed": false
        }
      ],
      "logsBloom": "0x00000000000000000000000000000000000000000000000000000000000000000000000000000000000000000000000000000000000000000000000000000000000000000000000000000000000000000000000000000000000000008000000000000000000000000100000000000000000000000000000000000000000000000000000000000000000020000000000000000000000000000000000000000000000000000000000000000000000000000000000004000000000000000000000000000000000000000000000000000000000000000000000000000000000000000000000000000000000200000000000000000000000000000000100000000000",
      "type": "0x2",
      "transactionHash": "0x233fb94d1ec08a2b884300719fe6e383acbfc27fbb1a2287f89d5229b4b3c927",
      "transactionIndex": "0x1",
      "blockHash": "0xc6abcd7afea4d211e26d064ed2e146ba315bc3d6c8ee7acf9aa38128ae453592",
      "blockNumber": "0x1fa078b",
      "gasUsed": "0x5b2ee9e",
      "effectiveGasPrice": "0x132b3a0",
      "from": "0x38c35a030ac45a511a7930dffd93fcdc2f67b6a8",
      "to": "0x665566b12f2e9e93d55f0f2ffdeae46553bd037d",
      "contractAddress": null,
      "l1Fee": "0x78242e",
      "l1FeeScalar": "0.01",
      "l1GasPrice": "0x70",
      "l1GasUsed": "0x8bc",
      "tokenRatio": "0xc48"
    }
  ],
  "libraries": [],
  "pending": [],
  "returns": {},
  "timestamp": 1767870967375,
  "chain": 5003,
  "commit": "91f60c4"
}