{
  "transactions": [
    {
      "hash": "0xf9fea860204a0876a3a2e1af5f68f92263f6df8e51db4277426626e94a5e2bc1",
      "transactionType": "CALL",
      "contractName": "MockUSDC",
      "contractAddress": "0xcb456899a90bc65ba19b899316623c481e3ebdcb",
      "function": "mintAdmin(address,uint256)",
      "arguments": [
        "0x38C35a030Ac45A511A7930DffD93fcdc2F67B6A8",
        "50000000000"
      ],
      "transaction": {
        "from": "0x38c35a030ac45a511a7930dffd93fcdc2f67b6a8",
        "to": "0xcb456899a90bc65ba19b899316623c481e3ebdcb",
        "gas": "0xaf91ccf",
        "value": "0x0",
        "input": "0xc3a7199900000000000000000000000038c35a030ac45a511a7930dffd93fcdc2f67b6a80000000000000000000000000000000000000000000000000000000ba43b7400",
        "nonce": "0xc2",
        "chainId": "0x138b"
      },
      "additionalContracts": [],
      "isFixedGasLimit": false
    },
    {
      "hash": "0x549695fd81104391e8cc11d42d5150dd311b6b0a9eb29edb879851eae9981b7f",
      "transactionType": "CALL",
      "contractName": "MockUSDC",
      "contractAddress": "0xcb456899a90bc65ba19b899316623c481e3ebdcb",
      "function": "approve(address,uint256)",
      "arguments": [
        "0x06dE2bF7F830D5dAFa5F62B949fc3ABf301F2746",
        "10000000000"
      ],
      "transaction": {
        "from": "0x38c35a030ac45a511a7930dffd93fcdc2f67b6a8",
        "to": "0xcb456899a90bc65ba19b899316623c481e3ebdcb",
        "gas": "0xdea64e0",
        "value": "0x0",
        "input": "0x095ea7b300000000000000000000000006de2bf7f830d5dafa5f62b949fc3abf301f274600000000000000000000000000000000000000000000000000000002540be400",
        "nonce": "0xc3",
        "chainId": "0x138b"
      },
      "additionalContracts": [],
      "isFixedGasLimit": false
    },
    {
      "hash": "0x76e372bab0cd88759e5f9c6d3041b009e1d79b11418beae51baa424bde9474da",
      "transactionType": "CALL",
      "contractName": null,
      "contractAddress": "0x06de2bf7f830d5dafa5f62b949fc3abf301f2746",
      "function": "depositYield(uint256)",
      "arguments": [
        "10000000000"
      ],
      "transaction": {
        "from": "0x38c35a030ac45a511a7930dffd93fcdc2f67b6a8",
        "to": "0x06de2bf7f830d5dafa5f62b949fc3abf301f2746",
        "gas": "0x25659",
        "value": "0x0",
        "input": "0x7cf4c01b00000000000000000000000000000000000000000000000000000002540be400",
        "nonce": "0xc4",
        "chainId": "0x138b"
      },
      "additionalContracts": [],
      "isFixedGasLimit": false
    }
  ],
  "receipts": [
    {
      "status": "0x1",
      "cumulativeGasUsed": "0x6fb7ea8",
      "logs": [
        {
          "address": "0xcb456899a90bc65ba19b899316623c481e3ebdcb",
          "topics": [
            "0xddf252ad1be2c89b69c2b068fc378daa952ba7f163c4a11628f55a4df523b3ef",
            "0x0000000000000000000000000000000000000000000000000000000000000000",
            "0x00000000000000000000000038c35a030ac45a511a7930dffd93fcdc2f67b6a8"
          ],
          "data": "0x0000000000000000000000000000000000000000000000000000000ba43b7400",
          "blockHash": "0x98b1659c8680189470f2a508490c81ef0ee0b2be8036547ce611a9e9e92309ad",
          "blockNumber": "0x1fc6a8a",
          "blockTimestamp": "0x696457f5",
          "transactionHash": "0xf9fea860204a0876a3a2e1af5f68f92263f6df8e51db4277426626e94a5e2bc1",
          "transactionIndex": "0x1",
          "logIndex": "0x0",
          "removed": false
        }
      ],
      "logsBloom": "0x00000000000000000000000000000000000000000000000000000000000000000000000000000000000000000000000000000000000000000000000000000000000000000000000000000008000000000000000000000000000000000000000000000000020000000000000000000800000000000000000000000010000000000000000040000000000000000000000000010000000000000000000000000000000002000000000000000000000000000000000000000000000000000400400020000002000000000000000000000000000000000000000000000000000020000000000000000000000000000000000000000000000000000000000000000000",
      "type": "0x2",
      "transactionHash": "0xf9fea860204a0876a3a2e1af5f68f92263f6df8e51db4277426626e94a5e2bc1",
      "transactionIndex": "0x1",
      "blockHash": "0x98b1659c8680189470f2a508490c81ef0ee0b2be8036547ce611a9e9e92309ad",
      "blockNumber": "0x1fc6a8a",
      "gasUsed": "0x6fa84e3",
      "effectiveGasPrice": "0x132b3a0",
      "from": "0x38c35a030ac45a511a7930dffd93fcdc2f67b6a8",
      "to": "0xcb456899a90bc65ba19b899316623c481e3ebdcb",
      "contractAddress": null,
      "l1Fee": "0xef4a12e7",
      "l1FeeScalar": "0.01",
      "l1GasPrice": "0xbd2d",
      "l1GasUsed": "0xa3c",
      "tokenRatio": "0xc5c"
    },
    {
      "status": "0x1",
      "cumulativeGasUsed": "0x8da5709",
      "logs": [
        {
          "address": "0xcb456899a90bc65ba19b899316623c481e3ebdcb",
          "topics": [
            "0x8c5be1e5ebec7d5bd14f71427d1e84f3dd0314c0f7b2291e5b200ac8c7c3b925",
            "0x00000000000000000000000038c35a030ac45a511a7930dffd93fcdc2f67b6a8",
            "0x00000000000000000000000006de2bf7f830d5dafa5f62b949fc3abf301f2746"
          ],
          "data": "0x00000000000000000000000000000000000000000000000000000002540be400",
          "blockHash": "0x79db2375817436c396c4a70d4e4dd2acfd11480530e17754ec028cdaa01fb2db",
          "blockNumber": "0x1fc6a8e",
          "blockTimestamp": "0x696457fd",
          "transactionHash": "0x549695fd81104391e8cc11d42d5150dd311b6b0a9eb29edb879851eae9981b7f",
          "transactionIndex": "0x1",
          "logIndex": "0x0",
          "removed": false
        }
      ],
      "logsBloom": "0x00000000000000000000000000000000000000000000000000000000000000000000000000000000000000000000000000080000000000000000000000200000000000000000000000000000000000000000000000000000000000000000000000000000000000000000000000000000000200000000000000000000000000000000000040000000000000000000000000010000000000000000000000000000020002000000000000000000000000000000000000000000000000000400400020000000000000000000000000000000000000000000000000000000000000000010000000000000000000000000000000010000000000000000000000000000",
      "type": "0x2",
      "transactionHash": "0x549695fd81104391e8cc11d42d5150dd311b6b0a9eb29edb879851eae9981b7f",
      "transactionIndex": "0x1",
      "blockHash": "0x79db2375817436c396c4a70d4e4dd2acfd11480530e17754ec028cdaa01fb2db",
      "blockNumber": "0x1fc6a8e",
      "gasUsed": "0x8d9a010",
      "effectiveGasPrice": "0x132b3a0",
      "from": "0x38c35a030ac45a511a7930dffd93fcdc2f67b6a8",
      "to": "0xcb456899a90bc65ba19b899316623c481e3ebdcb",
      "contractAddress": null,
      "l1Fee": "0xef4a12e7",
      "l1FeeScalar": "0.01",
      "l1GasPrice": "0xbd2d",
      "l1GasUsed": "0xa3c",
      "tokenRatio": "0xc5c"
    },
    {
      "status": "0x1",
      "cumulativeGasUsed": "0x13c14c01",
      "logs": [
        {
          "address": "0xcb456899a90bc65ba19b899316623c481e3ebdcb",
          "topics": [
            "0xddf252ad1be2c89b69c2b068fc378daa952ba7f163c4a11628f55a4df523b3ef",
            "0x00000000000000000000000038c35a030ac45a511a7930dffd93fcdc2f67b6a8",
            "0x00000000000000000000000006de2bf7f830d5dafa5f62b949fc3abf301f2746"
          ],
          "data": "0x00000000000000000000000000000000000000000000000000000002540be400",
          "blockHash": "0x955c317d444589e2a141a56f40cbc3e5ed9456494a7ebb189db013e7bc8e9dac",
          "blockNumber": "0x1fc6a92",
          "blockTimestamp": "0x69645805",
          "transactionHash": "0x76e372bab0cd88759e5f9c6d3041b009e1d79b11418beae51baa424bde9474da",
          "transactionIndex": "0x1",
          "logIndex": "0x0",
          "removed": false
        },
        {
          "address": "0x06de2bf7f830d5dafa5f62b949fc3abf301f2746",
          "topics": [
            "0xa248d81b377afe8736fe397f5a9f8f0d7c581e67ff6ae4037df29a672a92133b"
          ],
          "data": "0x00000000000000000000000000000000000000000000000000000002540be4000000000000000000000000000000000000000000000000000000000069645805",
          "blockHash": "0x955c317d444589e2a141a56f40cbc3e5ed9456494a7ebb189db013e7bc8e9dac",
          "blockNumber": "0x1fc6a92",
          "blockTimestamp": "0x69645805",
          "transactionHash": "0x76e372bab0cd88759e5f9c6d3041b009e1d79b11418beae51baa424bde9474da",
          "transactionIndex": "0x1",
          "logIndex": "0x1",
          "removed": false
        }
      ],
      "logsBloom": "0x00000000000000008000000000000000000000000000000000000000000000000000000000000000000000000000000000080000000000000000000000000000000000000000000000000008000000000000000000000000000000000000000000000000000000000000000000000000000200000000000000000210020000000000000040000000000000000000000000010000000000000000000000000000000002000000000000000000002000000000000000000000000000000400400020000002000000000000000000000000000000000000000000000000008000000000000000000000000000000000000000010000000000000400000000000000",
      "type": "0x2",
      "transactionHash": "0x76e372bab0cd88759e5f9c6d3041b009e1d79b11418beae51baa424bde9474da",
      "transactionIndex": "0x1",
      "blockHash": "0x955c317d444589e2a141a56f40cbc3e5ed9456494a7ebb189db013e7bc8e9dac",
      "blockNumber": "0x1fc6a92",
      "gasUsed": "0x13c094fc",
      "effectiveGasPrice": "0x132b3a0",
      "from": "0x38c35a030ac45a511a7930dffd93fcdc2f67b6a8",
      "to": "0x06de2bf7f830d5dafa5f62b949fc3abf301f2746",
      "contractAddress": null,
      "l1Fee": "0xc60824dc",
      "l1FeeScalar": "0.01",
      "l1GasPrice": "0xb772",
      "l1GasUsed": "0x8bc",
      "tokenRatio": "0xc5c"
    }
  ],
  "libraries": [],
  "pending": [],
  "returns": {},
  "timestamp": 1768183817209,
  "chain": 5003,
  "commit": "ecfa901"
}